:020000040800F2
:100000000804002061070008710700087307000852
:10001000750700087707000879070008000000004E
:100020000000000000000000000000007B07000846
:100030007D070008000000007F0700085D0600083B
:10004000B1070008B5070008B9070008BD07000898
:10005000C1070008C5070008C9070008CD07000848
:10006000D1070008D5070008D9070008DD070008F8
:10007000E1070008E5070008E9070008ED070008A8
:10008000F1070008F5070008F9070008FD07000858
:100090000108000805080008090800080504000810
:1000A0001108000815080008190800081D080008B4
:1000B0002108000825080008290800082D08000864
:1000C0003108000835080008390800083D08000814
:1000D0004108000845080008490800084D080008C4
:1000E00051080008550800085908000880B54F4815
:1000F000006850F001004D4908604D4800684D49C6
:1001000008404B490860494800684B490840474946
:1001100008604648006830F480204449086044483C
:10012000006830F4FE00424908605FF41F00434954
:10013000086000F005F85FF000604149086001BD0B
:1001400080B500F001F801BD82B0002001900020D0
:1001500000903648006850F48030344908603348D5
:10016000006810F4003000900198401C0190009845
:10017000002803D10198B0F5A06FF0D12B4800689A
:10018000800302D50120009001E00020009000983B
:10019000012847D12B48006850F010002949086019
:1001A00028480068800880002649086025480068C3
:1001B00050F00200234908601D4800681C4908608F
:1001C0001B4800681A4908601948006850F48060AC
:1001D000174908601648006830F47C10144908601C
:1001E0001348006850F4E810114908600F4800688F
:1001F00050F080700D4908600C4800688001FBD504
:100200000B480068800880000949086008480068B9
:1002100050F00200064908600548006810F00C0024
:100220000828F9D102B07047000000000010024019
:10023000041002400000FFF8FFFFF6FE0810024025
:1002400008ED00E000200240F0B400220026002467
:1002500000250023002791F803C01CF00F0C624614
:1002600091F803C05FEACC6C01D58B781A430B7808
:100270001B0621D00368002406E0CD78482D02D16A
:100280000125A5400561641C082C14D20125A54058
:100290000E882E40AE42F6D1A5000F2616FA05F7BD
:1002A000BB4312FA05F52B43CD78282DE5D1012566
:1002B000A5404561E7E703600B88FF2B26DD436817
:1002C000002420E0012514F10806B5400E882E40D8
:1002D000AE4217D1A5000F2616FA05F7BB4312FA56
:1002E00005F52B43CD78282D04D1012514F10806FE
:1002F000B5404561CD78482D04D1012514F108069B
:10030000B5400561641C082CDCD34360F0BC704729
:100310000022806889B2084201D0012200E0002258
:100320001000C0B2704789B20161704789B2416163
:10033000704710B400220F2311F00304E4B2A400AC
:10034000A3401A000F4BC9B28C1053F8243033EA83
:1003500002020C4BC9B28C1043F82420094AC9B2DE
:100360008B1052F82320C0B211F00303DBB29B00C4
:1003700098401043034AC9B2891042F8210010BCCA
:10038000704700000800014000B585B00121112030
:1003900000F07CF88020ADF8040004208DF8070000
:1003A00003208DF8060001A93548FFF74DFF07210E
:1003B0000220FFF7BEFF8020029000208DF80C0085
:1003C0000C208DF80D0001208DF80E0002A800F021
:1003D0006FF84FF4E06000F0C7F84FF4E06000F011
:1003E000C3F817208DF8000000208DF801000020D0
:1003F0008DF8020001208DF8030000A800F0B9F884
:1004000005B000BD80B5802000F096F8002836D0F9
:10041000642004E0491E89B20029FBD1401E80B24D
:10042000002802D04FF43471F5E780211448FFF71B
:100430006FFF00280CD113480078042803DB00204C
:100440001049087004E00F480078401C0D490870FE
:100450000C480078022190FBF1F202FB1102012A04
:1004600005D14FF480610848FFF75DFF04E04FF4C9
:1004700080610548FFF75AFF802000F068F801BD51
:100480000010014004000020000C0140C9B2002906
:1004900005D00649096808430449086005E0034996
:1004A000096831EA000001490860704718100240ED
:1004B0000021284A11008279002A35D0254A126885
:1004C00003689A43234B1A60234A126803689A43CD
:1004D000214B1A60027951180A6803681A430A60AE
:1004E0001E490968026891431C4A11601C49096849
:1004F000026891431A4A1160417910290CD11749B9
:10050000096802681143154A1160154909680068B5
:100510000843134908600EE00E49427951180A68F1
:1005200000681043086006E0027951180A68006804
:1005300032EA00000860704700210A4A126802424D
:1005400001D0012100E000210800C0B27047054938
:1005500008607047000401400404014008040140A1
:100560000C040140140401401A4908431A49086068
:10057000704710B4002100220F23C478002C1DD036
:100580001549096811F4E061D1F5E061090AD1F17A
:100590000402CB404178914082781A40114309010E
:1005A0000E4A037899540121027812F01F029140FB
:1005B0000B4A0078401142F8201009E0012102782E
:1005C00012F01F029140074A0078401142F82010B3
:1005D00010BC70470000FA050CED00E000E400E0FC
:1005E00000E100E080E100E040B2002808D5090108
:1005F0001C4A40B210F00F00801800F8041C03E001
:100600000901194A40B28154704780B5411EB1F1C9
:10061000807F01D301200EE0401E144908600F21A5
:100620005FF0FF30FFF7E0FF00201149086007206E
:1006300010490860002002BD80B50F48FFF7E5FFB4
:10064000012800D1FEE701BD0C480068002804D055
:100650000A480068401E09490860704780B5FFF7E6
:10066000F3FF01BD18ED00E000E400E014E000E05D
:1006700018E000E010E000E0401901000000002058
:1006800080B501210820FFF701FF4FF48060ADF82D
:10069000000010208DF8030003208DF8020000A94F
:1006A0000148FFF7D1FD01BD000C014010B507491D
:1006B00079441831064C7C44163404E00A68081D5D
:1006C000511888470146A142F8D110BD2C00000006
:1006D0003800000050F8041B61B150F8042BD30718
:1006E00044BFA9F101039A18002342F8043B091FF3
:1006F000FAD1EFE770470000DDFFFFFF08000000C0
:10070000000000200000000000F00BF8002801D0DD
:10071000FFF7CCFF0020C046C04600F004F800F010
:100720000CF80120704780B5FFF7E0FCFFF784FF6D
:10073000FFF7A6FFFFF728FEFEE700F001B8000074
:100740000746384600F002F8FBE7000080B5C046D7
:10075000C046024A11001820ABBEFBE7260002008B
:100760000148804701480047ED0000088107000864
:100770007047FEE7FEE7FEE7FEE770477047704709
:10078000C046C046C046C046FFF7BEFFFFF7F0BFF9
:10079000FFF7EFBFFFF7EEBFFFF7EDBFFFF7ECBFCF
:1007A000FFF7EBBFFFF7EABFFFF7E9BFFFF756BF61
:1007B000FFF7FEBFFFF7FEBFFFF7FEBFFFF7FEBF6D
:1007C000FFF7FEBFFFF7FEBFFFF7FEBFFFF7FEBF5D
:1007D000FFF7FEBFFFF7FEBFFFF7FEBFFFF7FEBF4D
:1007E000FFF7FEBFFFF7FEBFFFF7FEBFFFF7FEBF3D
:1007F000FFF7FEBFFFF7FEBFFFF7FEBFFFF7FEBF2D
:10080000FFF7FEBFFFF7FEBFFFF7FEBFFFF7FABD22
:10081000FFF7FEBFFFF7FEBFFFF7FEBFFFF7FEBF0C
:10082000FFF7FEBFFFF7FEBFFFF7FEBFFFF7FEBFFC
:10083000FFF7FEBFFFF7FEBFFFF7FEBFFFF7FEBFEC
:10084000FFF7FEBFFFF7FEBFFFF7FEBFFFF7FEBFDC
:0C085000FFF7FEBFFFF7FEBFFFF7FEBF83
:040000050800078167
:00000001FF
