:020000040800F2
:10000000080400206D0500087D0500087F05000834
:100010008105000883050008850500080000000030
:10002000000000000000000000000000870500083C
:1000300089050008000000008B050008C9030008BE
:10004000BD050008C1050008C5050008C905000870
:10005000CD050008D1050008D5050008D905000820
:10006000DD050008E1050008E5050008E9050008D0
:10007000ED050008F1050008F5050008F905000880
:10008000FD0500080106000805060008090600082D
:100090000D060008110600081506000819060008DC
:1000A0001D0600082106000825060008290600088C
:1000B0002D0600083106000835060008390600083C
:1000C0003D060008410600084506000849060008EC
:1000D0004D0600085106000855060008590600089C
:1000E0005D060008610600086506000880B54F48F7
:1000F000006850F001004D4908604D4800684D49C6
:1001000008404B490860494800684B490840474946
:1001100008604648006830F480204449086044483C
:10012000006830F4FE00424908605FF41F00434954
:10013000086000F005F85FF000604149086001BD0B
:1001400080B500F001F801BD82B0002001900020D0
:1001500000903648006850F48030344908603348D5
:10016000006810F4003000900198401C0190009845
:10017000002803D10198B0F5A06FF0D12B4800689A
:10018000800302D50120009001E00020009000983B
:10019000012847D12B48006850F010002949086019
:1001A00028480068800880002649086025480068C3
:1001B00050F00200234908601D4800681C4908608F
:1001C0001B4800681A4908601948006850F48060AC
:1001D000174908601648006830F47C10144908601C
:1001E0001348006850F4E810114908600F4800688F
:1001F00050F080700D4908600C4800688001FBD504
:100200000B480068800880000949086008480068B9
:1002100050F00200064908600548006810F00C0024
:100220000828F9D102B07047000000000010024019
:10023000041002400000FFF8FFFFF6FE0810024025
:1002400008ED00E000200240F0B400220026002467
:1002500000250023002791F803C01CF00F0C624614
:1002600091F803C05FEACC6C01D58B781A430B7808
:100270001B0621D00368002406E0CD78482D02D16A
:100280000125A5400561641C082C14D20125A54058
:100290000E882E40AE42F6D1A5000F2616FA05F7BD
:1002A000BB4312FA05F52B43CD78282DE5D1012566
:1002B000A5404561E7E703600B88FF2B26DD436817
:1002C000002420E0012514F10806B5400E882E40D8
:1002D000AE4217D1A5000F2616FA05F7BB4312FA56
:1002E00005F52B43CD78282D04D1012514F10806FE
:1002F000B5404561CD78482D04D1012514F108069B
:10030000B5400561641C082CDCD34360F0BC704729
:100310000022806889B2084201D0012200E0002258
:100320001000C0B2704789B20161704789B2416163
:10033000704750F8041B61B150F8042BD30744BF39
:10034000A9F101039A18002342F8043B091FFAD1CE
:10035000EFE7704740B2002808D50901204A40B2B3
:1003600010F00F00801800F8041C03E009011D4A7A
:1003700040B28154704780B5411EB1F1807F01D3F6
:1003800001200EE0401E184908600F215FF0FF3089
:10039000FFF7E0FF002015490860072014490860B6
:1003A000002002BD80B51348FFF7E5FF012800D10A
:1003B000FEE701BD10480068002804D00E48006820
:1003C000401E0D490860704780B5FFF7F3FF01BD7F
:1003D00009490860084800680028FBD17047000000
:1003E00018ED00E000E400E014E000E018E000E0B8
:1003F00010E000E0401901000000002010B5FFF7F8
:1004000075FEFFF7CFFF00F035F800F049F804E083
:100410004FF480611548FFF786FF80211448FFF7ED
:1004200077FF002814D10A20FFF7D2FF802110485F
:10043000FFF76EFF002805D1E4B2042C01DB002495
:1004400000E0641C80210A48FFF762FF0028F9D011
:10045000E4B2022094FBF0F101FB10410129D7D056
:100460004FF480610148FFF761FFD6E7000C0140BF
:100470000010014080B50121082000F027F84FF45A
:100480008060ADF8000010208DF8030003208DF887
:10049000020000A90148FFF7D7FE01BD000C014092
:1004A00080B50121102000F011F88020ADF8000087
:1004B00004208DF8030003208DF8020000A90248F3
:1004C000FFF7C2FE01BD00BF000C0140C9B2002908
:1004D00005D00649096808430449086005E0034956
:1004E000096831EA000001490860704718100240AD
:1004F00010B5074979441831064C7C44163404E0A1
:100500000A68081D511888470146A142F8D110BD5C
:1005100008000000140000001BFEFFFF04000000A4
:10052000000000200000000000F00BF8002801D0BF
:10053000FFF7DEFF0020C046C046FFF75FFF00F078
:1005400002F80120704700F001B800000746384665
:1005500000F002F8FBE7000080B5C046C046024A42
:1005600011001820ABBEFBE72600020001488047BF
:1005700001480047ED0000088D0500087047FEE7C0
:10058000FEE7FEE7FEE7704770477047C046C0468B
:10059000C046C046FFF7C8FFFFF7F0BFFFF7EFBF49
:1005A000FFF7EEBFFFF7EDBFFFF7ECBFFFF7EBBFC5
:1005B000FFF7EABFFFF7E9BFFFF706BFFFF7FEBF90
:1005C000FFF7FEBFFFF7FEBFFFF7FEBFFFF7FEBF5F
:1005D000FFF7FEBFFFF7FEBFFFF7FEBFFFF7FEBF4F
:1005E000FFF7FEBFFFF7FEBFFFF7FEBFFFF7FEBF3F
:1005F000FFF7FEBFFFF7FEBFFFF7FEBFFFF7FEBF2F
:10060000FFF7FEBFFFF7FEBFFFF7FEBFFFF7FEBF1E
:10061000FFF7FEBFFFF7FEBFFFF7FEBFFFF7FEBF0E
:10062000FFF7FEBFFFF7FEBFFFF7FEBFFFF7FEBFFE
:10063000FFF7FEBFFFF7FEBFFFF7FEBFFFF7FEBFEE
:10064000FFF7FEBFFFF7FEBFFFF7FEBFFFF7FEBFDE
:10065000FFF7FEBFFFF7FEBFFFF7FEBFFFF7FEBFCE
:08066000FFF7FEBFFFF7FEBF2C
:040000050800058D5D
:00000001FF
