:020000040800F2
:1000000040040020F1120008011300080313000847
:10001000051300080713000809130008000000007A
:100020000000000000000000000000000B130008AA
:100030000D130008000000000F1300084310000813
:100040004113000845130008491300084D13000828
:100050005113000855130008591300085D130008D8
:100060006113000865130008691300086D13000888
:100070007113000875130008791300087D13000838
:100080008113000885130008891300088D130008E8
:100090009113000895130008991300089D13000898
:1000A000A1130008A5130008A9130008AD13000848
:1000B000B1130008B5130008B9130008BD130008F8
:1000C000C1130008C5130008C9130008CD130008A8
:1000D000D1130008970E0008D9130008DD1300089B
:1000E000CB0A0008E5130008E913000880B50121D8
:1000F000042000F0E2FBA020ADF8000000A90320DE
:100100008DF8020010208DF80300DFF8240500F0C0
:10011000E7FB0121082000F0D0FB3C20ADF80000F7
:1001200000A903208DF8020010208DF80300DFF8ED
:10013000040500F0D5FB01BDF8B50446DFF8F45422
:10014000202128460161C046102128460161C04691
:100150000BE0F8B50446DFF8DC54202128460161A5
:10016000C046102128464161C046DFF8C464202102
:1001700030460161C046202128464161C04608271B
:10018000202130464161C046200604D580213046FA
:100190000161C04603E0802130464161C046202114
:1001A00030460161C04664007F1EE9D12846BDE8A3
:1001B000F440202100F0FABB10B5FFF797FF0A20AA
:1001C000C046C046DFF86C44082120464161C04665
:1001D0000220C046C046082120460161C0460420D6
:1001E000C046C046E220FFF7B4FFA220FFF7B1FFF0
:1001F000A020FFF7AEFFC820FFF7ABFFA420FFF75A
:10020000A8FFA620FFF7A5FF2520FFF7A2FF81206A
:10021000FFF79FFF1A20FFF79CFF2F20FFF799FFA2
:100220004020FFF796FFBDE81040AF2091E7F8B5FA
:100230000D4602EB42014E000FF2FC37FFE750384B
:10024000F419C0B2FFF785FF280940F01000FFF74E
:1002500080FF05F00F00FFF77CFFF05DFFF76CFFFC
:100260006D1CEDB2280940F01000FFF772FF05F099
:100270000F00FFF76EFF6078FFF75EFF6D1CEDB2B9
:10028000280940F01000FFF764FF05F00F00FFF7AA
:1002900060FFA078FFF750FF6D1CEDB2280940F019
:1002A0001000FFF756FF05F00F00FFF752FFE07850
:1002B000FFF742FF6D1CEDB2280940F01000FFF778
:1002C00048FF05F00F00FFF744FF2079FFF734FFE8
:1002D0006D1CEDB2280940F01000FFF73AFF05F061
:1002E0000F00FFF736FF6079BDE8F24024E72DE903
:1002F000F84380460FF27C300D46002600EB0219D1
:10030000FFE7A8F15000C0B2FFF723FF280940F033
:100310001000FFF71EFF05F00F00FFF71AFF19F896
:100320003600FFF709FF681CC7B2380940F010001B
:10033000FFF70FFF07F00F00FFF70BFF09EBC604F5
:100340006078FFF7F9FE781CC7B2380940F010005A
:10035000FFF7FFFE07F00F00FFF7FBFEA078FFF7A7
:10036000EBFE781CC7B2380940F01000FFF7F1FE31
:1003700007F00F00FFF7EDFEE078FFF7DDFE781CD9
:10038000C7B2380940F01000FFF7E3FE07F00F0096
:10039000FFF7DFFE2079FFF7CFFE781CC7B23809E0
:1003A00040F01000FFF7D5FE07F00F00FFF7D1FE79
:1003B0006079FFF7C1FE781CC7B2380940F0100021
:1003C000FFF7C7FE07F00F00FFF7C3FEA079FFF7A6
:1003D000B3FE781CC7B2380940F01000FFF7B9FE31
:1003E00007F00F00FFF7B5FEE079FFF7A5FE761CDA
:1003F00008F10108022E84DBBDE8F1832DE9F04706
:10040000064688460FF20C30C2EB0211002500EBC5
:10041000410AFFE7A6F15000C0B2FFF79AFE05EBD4
:10042000850044460AEB40090A27E4B2200940F05F
:100430001000FFF78EFE04F00F00FFF78AFE19F898
:10044000010BFFF779FE641C7F1EEED1761C6D1C3C
:10045000032DDFDBBDE8F0872DE9F0418046104633
:100460000D464FF47A72194693FBF2F2D2B24FF472
:100470007A7303FB1213642693FBF6F6F6B2642735
:1004800007FB16330A2793FBF7F70A2391FBF3F3D5
:1004900003EB8303A1EB4304B1F57A7F70DA64299F
:1004A00036DA0A2911DA012806D0C0F0BE80032806
:1004B00008D004D3BDE8F081E2B229467DE0E2B283
:1004C000294694E0E2B22946ABE0012806D0C0F00C
:1004D000AC80032813D009D3BDE8F081FAB22946D5
:1004E0004046FFF7A4FEE2B2A91D65E0FAB2294634
:1004F0004046FFF7FCFEE2B205F1080176E0FAB2F1
:1005000029464046FFF77AFFE2B205F10A0187E08B
:10051000012806D0C0F08980032821D010D3BDE87F
:10052000F081324629464046FFF781FEA91DFAB206
:10053000C9B24046FFF77BFEE2B205F10C013BE099
:10054000324629464046FFF7D2FE05F10801FAB2CD
:10055000C9B24046FFF7CBFEE2B205F1100145E01B
:10056000324629464046FFF7C2FE05F10A01FAB2BB
:10057000C9B24046FFF7BBFEE2B205F1140135E017
:10058000012805D051D3032835D01AD3BDE8F08116
:1005900029464046FFF74BFEA91D3246C9B24046E8
:1005A000FFF745FE05F10C01FAB2C9B24046FFF76C
:1005B0003EFEE2B205F11201C9B24046BDE8F0418B
:1005C00035E629464046FFF792FE05F1080132461E
:1005D000C9B24046FFF78BFE05F11001FAB2C9B26D
:1005E0004046FFF784FEE2B205F11801C9B2404669
:1005F000BDE8F0417BE629464046FFF7FFFE05F1E6
:100600000A013246C9B24046FFF7F8FE05F114016F
:10061000FAB2C9B24046FFF7F1FEE2B205F11E019F
:10062000C9B24046BDE8F041E8E6BDE8F08100000F
:1006300000080140000C0140007E81817E00000026
:1006400082FF800000C2A19189860042818989765B
:1006500000181412FF1000C789898971007E8989EA
:1006600089720001C1310D03007689898976000EF7
:100670009191917E00E010080810E000000708103A
:1006800010080700001010F8000000000010101FF4
:1006900010100000003008080888700000181412BC
:1006A000111018000030088888483000000C101025
:1006B00010110E000000804030F80000000302120C
:1006C000121F120200F8484848488800000C101019
:1006D00010100F0000E090484850800000070810FC
:1006E00010100F0000180808C82818000000001E8D
:1006F000010000000070888888887000000E1110CA
:1007000010110E0000F008080890E0000000091128
:100710001108070080E0F078181878F0E0001F7FDB
:10072000FFE08080E0FF7F00000000010101010088
:10073000000000101010F8F8000000000000000099
:10074000FFFF800000000001010101010101010023
:1007500000F0F898080838F8F00000C0E070381C85
:1007600007C3C10001010101010101010100007085
:1007700078580818F8F0E00040E0E0E20207CFFD0A
:10078000FC0000000101010101010000000000C0A7
:10079000E0F8F8F80000181C171311FFFFFF100015
:1007A0000000000101010101010000F8F80808083B
:1007B0000808080040E3E7A30101C7FFFE000000AE
:1007C000010101010101000080E0F07818083838CB
:1007D00030003FFFFFC7830183FFFE0000000101DF
:1007E000010101010000003838080888E8F8180005
:1007F000000000F0FEFF0300000000000001010106
:100800000000000040F0F898080818F8F00070FDAB
:10081000FD8707068FFDF9000000010101010101BC
:100820000000E0F0F818080878F0E08003C7CFCCAB
:10083000088CFEFF7F07000001010101010000009C
:1008400010B422490A6802F00C02082A0FD10A6883
:100850000B68C2F38342921CDB0358BF1C4B04D5C8
:100860000B689B034CBF1A4B1A4B5A4300E0194AC2
:1008700002600B68184A0468C3F303139B5C24FAF4
:1008800003F343600B684468C3F302239B5C24FAC0
:1008900003F383600B684468C3F3C2239B5C24FAB0
:1008A00003F3C3600968C368C1F381318918097C07
:1008B000B3FBF1F1016110BC7047084A00291168CF
:1008C00014BF084321EA0000106070470410024082
:1008D00000093D0000127A000000002018100240BC
:1008E0002DE9F041CC78002204F00F03E40644BF68
:1008F0008C7823430C88E5B225B3D0F800C00125DD
:100900000F2605FA02F7BE460EEA0408F04514D198
:100910004FEA820E06FA0EF82CEA080C03FA0EFED5
:100920004EEA0C0C91F803E0BEF1280F08BF4761B6
:1009300003D0BEF1480F08BF0761521C082AE0D35C
:10094000C0F800C0FF2C28DDD0F804C0002201252B
:100950000F2602F1080705FA07F7BE460EEA04085B
:10096000F04515D14FEA820E06FA0EF82CEA080C73
:1009700003FA0EFE4EEA0C0C91F803E0BEF1280FCC
:1009800008BF476191F803E0BEF1480F08BF076157
:10099000521C082ADDD3C0F804C0BDE8F08180688D
:1009A0000022084218BF01221046704701617047BB
:1009B00070B41F4A00284CBF9469146800F44016B4
:1009C000C0F3034583B2B6F5401F06D1156825F084
:1009D000706524F0706415600CE0C60203D5032630
:1009E00006FA05F503E0450D2D0103FA05F5AC43C4
:1009F00044F0706421B1410D090103FA01F10C4387
:100A000000284CBF9461146070BC704730B401F092
:100A1000030221F00301074B9200CC580F259540AB
:100A2000AC43CC509040CC582043C85030BC7047A9
:100A3000040001400800014010B584B001210920E4
:100A4000FFF73BFF04208DF807004FF4F04403202C
:100A50008DF80600ADF8044001A94D48FFF740FFAE
:100A60000B210120FFF7D2FF0C210120FFF7CEFF61
:100A70000D210120FFF7CAFF0E210120FFF7C6FF5D
:100A800000208DF80C0002940C208DF80D00012040
:100A90008DF80E0002A800F07FF84FF4E06000F03F
:100AA000BFF84FF4E06000F0BBF828208DF800009C
:100AB00000208DF801008DF8020001208DF8030060
:100AC00000A800F0B2F804B010BD10B5314C4FF4DE
:100AD000006000F095F888B14FF400612C48FFF7F2
:100AE0005EFF38B920780428ACBF0020401C20707D
:100AF000012060704FF4006000F08AF84FF48050DD
:100B000000F07EF888B14FF480512148FFF747FF8D
:100B100038B920790428ACBF0020401C2071012086
:100B200060714FF4805000F073F84FF4005000F003
:100B300067F888B14FF400511548FFF730FF38B916
:100B4000207A0428ACBF0020401C20720120607273
:100B50004FF4005000F05CF84FF4804000F050F883
:100B6000A0B14FF480410A48FFF719FF40B920783F
:100B70000428AEBF0020207B401C2073012060733E
:100B80004FF48040BDE8104000F042B810BD0000B6
:100B9000000C01401400002030B401688279CB437E
:100BA0001D4932B30A461468234013605368046831
:100BB000A34353600379CC18236805682B43236053
:100BC00093680468A3439360D3680468A343D36025
:100BD00043790568102B08D1916829439160D16849
:100BE00000680843D06030BC7047CC1820682843A8
:100BF00003E000790C1820681840206030BC704772
:100C0000064A12680021024218BF012108467047B7
:100C100000BF02490860704700040140140401400D
:100C20001949084319490860704770B40378C478BB
:100C30001A460121ECB1154B1B68447803F4E063BC
:100C4000C3F5E0631B0AC3F10405AC4085780F26A9
:100C500026FA03F32B4023430D4C1B011355007858
:100C600000F01F0291400B4A400942F8201070BC6E
:100C7000704703F01F0001FA00F00749520941F8DC
:100C8000220070BC704700000000FA050CED00E087
:100C900000E400E000E100E080E100E030B504465F
:100CA00085B00D46208A4CF6FF710840E98808435C
:100CB00020824EF6F311A0890840A98808432989AB
:100CC000084369890843A0814FF6FF41A08A084084
:100CD000A9890843A08200A8FFF7B2FD1548844205
:100CE0000CBF03980298296819225043A289120464
:100CF0004CBF49008900B0FBF1F16420B1FBF0F07A
:100D000000010209642303FB1211A289120406D513
:100D1000C9003231B1FBF3F101F0070105E009012F
:100D20003231B1FBF3F101F00F010843208105B02E
:100D300030BD0000003801400029818912BF41F414
:100D400000514DF6FF721140818170470B065B0F19
:100D50004FF0010C01F01F010CFA01F1012B08BF4B
:100D60000C3003D0022B0CBF10301430002A026864
:100D700014BF114322EA0101016070478088C00559
:100D8000C00D704723E030B40A46130600215B0F04
:100D9000012402F01F0504FA05F5012B08BF838921
:100DA00003D0022B0CBF038A838A120A008804FA3C
:100DB00002F22B401040002B1CBF0028012130BC48
:100DC000084670470122090A02FA01F189B2C943B3
:100DD0000180704780B5012144F20500FFF76DFDE9
:100DE00000F015F84FF4C060FFF71AFF25208DF8CA
:100DF000000000208DF801008DF8020001208DF820
:100E0000030000A8FFF711FF00F021F801BD10B5A5
:100E100082B04FF40070ADF8000018208DF8030088
:100E200003208DF8020000A9354C2046FFF758FD3D
:100E30004FF48060ADF8000000A904208DF8030095
:100E400003208DF802002046FFF74AFD13BD10B5C0
:100E500084B04FF4165000900020ADF80C000C2028
:100E6000ADF80A0000200190ADF8080000A9224C5E
:100E70002046FFF713FF40212046FFF783FF0121A3
:100E80002046FFF759FF012240F225512046FFF787
:100E90005DFF04B010BD38B5174C40F2255529460A
:100EA0002046FFF770FF00B32046FFF767FF1349A6
:100EB0000A7AD2B9C0B2AA2808BF08700DD0F928A2
:100EC00008BF487009D0DD2808BF887105D0CA79ED
:100ED00052189070C879401CC871C879042804DB86
:100EE0008879DD2804BFFF20087229462046BDE826
:100EF0003440FFF767BF00000038014024000020A5
:100F00000008014080B501210420FFF7D6FC102025
:100F1000ADF8000000A903208DF8020010208DF824
:100F200003004048FFF7DCFC01BD10B582B0FFF7BD
:100F3000E9FF3C4C102120464161C04644F6382070
:100F400000F087F8102120460161C0461E2000F005
:100F500080F801210420FFF7B0FC1020ADF800005C
:100F600000A903208DF8020004208DF8030020461C
:100F7000FFF7B6FC13BDF8B50025FFF7D6FF294EE5
:100F800010213046FFF70BFD002848D110213046D4
:100F9000FFF705FD0028F9D010213046FFF7FFFCD0
:100FA0000128F9D00027082410213046FFF7F7FC6C
:100FB0000028F9D0282000F04CF810213046FFF727
:100FC000EEFC012807D110213046FFF7E8FC01288C
:100FD000F9D0012000E0002040EA4707641EE3D179
:100FE000114C2F556D1C052DDCDB10213046FFF711
:100FF000D6FC0028F9D0FFF785FF102130460161AB
:10100000C046207861780818A1780818E178081897
:101010002179884201D10120F2BD0020F2BD0020DB
:10102000F2BD000000080140300000200E480F4AC9
:1010300047214160F021117000218160072101608A
:10104000704700BF0A48016811B10168491E01607C
:10105000704701B406480099016001680029FCD17D
:1010600001B070470000000010E000E023ED00E058
:10107000380000203548364A82B0016841F001014D
:101080000160416811404160324A016811400160CD
:10109000016821F480210160416821F4FE01416072
:1010A0004FF41F018160002101910091016841F41A
:1010B00080310160016801F4003100910199491CFF
:1010C0000191009919B90199B1F5A06FF2D10168A8
:1010D000490C01F0010100910099012930D11E490C
:1010E0000A6842F010020A600A68920892000A60D8
:1010F0000A6842F002020A6041684160416841604A
:10110000416841F480614160416821F47C11416093
:10111000416841F4E8114160016841F0807101606B
:1011200001688901FCD541688908890041604168EE
:1011300041F002014160416801F00C010829FAD137
:101140004FF000600549086002B07047001002408F
:101150000000FFF8FFFFF6FE0020024008ED00E06F
:1011600038B501210120FFF7A8FB01211F48FFF737
:101170001FFCFFF77FFFFFF759FF00F03DF8FFF777
:101180005BFCFFF727FEFFF717F819480421016100
:10119000C0460024A4F15000C0B2FEF7DAFF0025DB
:1011A000281100F00F001030C0B2FEF7D2FF05F09A
:1011B0000F00FEF7CEFF0020FEF7BEFF6D1C802D56
:1011C000EEDB641C082CE5DBFFF7D5FE0128FBD124
:1011D000084C237802220221FFF73EF9A37802226D
:1011E00011460320FFF738F9EEE700BF0002300098
:1011F000000C01403000002080B501210C20FFF7D9
:101200005CFB4FF40440ADF8000000A910208DF8FD
:10121000030003208DF802000848FFF761FB4FF43C
:10122000C050ADF8000000A910208DF80300032085
:101230008DF802000248FFF753FB01BD000C01408E
:101240000008014010B450F8041B81B10268121864
:10125000001D50F8043BDC0744BFA9F10104E3186A
:1012600052F8044B43F8044B091FF9D1EBE710BCCB
:101270007047000010B5074979441831064C7C448A
:10128000163404E00A68081D511888470146A14237
:10129000F8D110BD0800000018000000A9FFFFFFF2
:1012A0003C00000048010000000000200000000099
:1012B0000120C046002801D0FFF7DCFF0020C04617
:1012C000C046FFF74DFF00F000F800F001B8000045
:1012D0000746384600F002F8FBE7000080B5C0463C
:1012E000C046024A11001820ABBEFBE726000200F0
:1012F0000148804701480047751000081113000895
:101300007047FEE7FEE7FEE7FEE77047704770476D
:10131000C046C046C046C046FFF7CAFFFFF7F0BF51
:10132000FFF7EFBFFFF7EEBFFFF7EDBFFFF7ECBF33
:10133000FFF7EBBFFFF7EABFFFF7E9BFFFF781BE9B
:10134000FFF7FEBFFFF7FEBFFFF7FEBFFFF7FEBFD1
:10135000FFF7FEBFFFF7FEBFFFF7FEBFFFF7FEBFC1
:10136000FFF7FEBFFFF7FEBFFFF7FEBFFFF7FEBFB1
:10137000FFF7FEBFFFF7FEBFFFF7FEBFFFF7FEBFA1
:10138000FFF7FEBFFFF7FEBFFFF7FEBFFFF7FEBF91
:10139000FFF7FEBFFFF7FEBFFFF7FEBFFFF7FEBF81
:1013A000FFF7FEBFFFF7FEBFFFF7FEBFFFF7FEBF71
:1013B000FFF7FEBFFFF7FEBFFFF7FEBFFFF7FEBF61
:1013C000FFF7FEBFFFF7FEBFFFF7FEBFFFF7FEBF51
:1013D000FFF7FEBFFFF75FBDFFF7FEBFFFF7FEBFE2
:1013E000FFF773BBFFF7FEBFFFF7FEBF0000000073
:1013F00001020304010203040607080902040608A7
:1014000000000000000000000000000000000000DC
:1014100000000000000000000000000000000000CC
:081420000000000000000000C4
:0400000508001311CB
:00000001FF
