:03000000021A8B56
:0C1A8B00787FE4F6D8FD75810702167321
:101673001218A59000057404F0E4FB7D017F0112AC
:1016830017EE30B2030217441219F4E4900000F08D
:10169300900000E0FBC39410501AEB75F008A4040B
:1016A300FD9000057402F07F011217EE900000E038
:1016B30004F080DCE4900000F0900000E0FFC394AD
:1016C300105020A3EFF075F008A404FDEF2410FBE5
:1016D3009000057402F07F031217EE900000E004FF
:1016E300F080D6E4900000F0900000E0FFC3941077
:1016F3005020A3EFF075F008A404FDEF2420FB9025
:1017030000057402F07F051217EE900000E004F06C
:1017130080D6E4900000F0900000E0FFC3941050E6
:1017230020A3EFF075F008A404FDEF2430FB900034
:10173300057402F07F071217EE900000E004F080BA
:10174300D630B3030217D31219F4E4900000F090DB
:101753000000E0FFC39410501CA3EFF0FBC454F04F
:1017630004FD9000057403F07F011217EE90000052
:10177300E004F080DAE4900000F0900000E0FFC3A2
:101783009410501EA3EFF0C454F004FDEF2408FBA3
:101793009000057403F0FF1217EE900000E004F0D0
:1017A30080D8E4900000F0900000E0FFC394105054
:1017B3001FA3EFF0C454F004FDEF2410FB900005C9
:1017C3007403F07F071217EE900000E004F080D757
:1017D30030B4030216851219F49000057404F0E482
:0B17E300FB7D017F011217EE0216854E
:10000300000000000000005F00000007000700146C
:100013007F147F14242E7B2A12231308646236492B
:100023005620500004030100001C2241000041221D
:100033001C0022147F142208087F08084030100097
:100043000008080808080060600000201008040287
:100053003E5149453E00427F400062514949462195
:1000630041494D331814127F1027454545393C4A01
:100073004949310171090503364949493646494918
:10008300291E00363600004036360000081422418F
:100093000014141414140041221408020159050217
:1000A3003E415D555E7C1211127C7F494949363EC3
:1000B300414141227F4141413E7F494949417F09B5
:1000C3000909013E415151727F0808087F00417FB1
:1000D30041002040413F017F081422417F404040BE
:1000E300407F020C027F7F0408107F3E4141413E66
:1000F3007F090909063E4151215E7F0919294626D8
:100103004949493201017F01013F4040403F1F20DF
:1001130040201F7F2018207F631408146303047892
:10012300040361514945437F7F41410002040810A4
:10013300200041417F7F04027F0204081C2A080833
:10014300000001020424545438407F2844443838C2
:1001530044444408384444287F3854545408087E9F
:1001630009090298A4A4A4787F08040478000079FC
:10017300000000808879007F1028444000417F40C0
:1001830000780478047804780404783844444438C4
:10019300FC2424241818242424FC04780404084888
:1001A30054545424043F4444243C40403C401C20C9
:1001B30040201C3C403C403C44281028449CA0A0C8
:1001C300907C4464544C440836410000000077009E
:1001D3000000004136080804081008552A552A551E
:1001E300000000000000000000000000000000000C
:1001F3000080C0A0A0A0600000020F1A1212080025
:10020300000000F0000000000000001700000000E4
:1002130000001C001C0000000000000000000000A3
:10022300004040F040F0404004041F051F05040057
:100233000070C8FC881000000004081F09070000B4
:10024300609090608060300000180C030D12120C57
:10025300006090906000000007091013140C130055
:100263000000001C0000000000000000000000006F
:10027300000000E0180000000000001F6000000004
:1002830000000018E0000000000000601F000000F4
:100293000008702C7008000000000000000000003F
:1002A300808080F080808000000000070000000054
:1002B3000000000000000000000000201800000003
:1002C30000008080800000000000000000000000AB
:1002D300000000000000000000000010000000000B
:1002E30000000080700C000000100E0100000000F0
:1002F3000000F8040404F8000000030404040300ED
:1003030000000808FC0000000000040407040400C7
:1003130000000804844438000000060504040400B7
:10032300000008044444B80000000204040403006D
:100333000000806018FC00000000010105070500B3
:1003430000007C44444484000000020404040300CD
:100353000000F04844448000000003040404030048
:1003630000000C0484641C0000000006010000006F
:100373000000B8444444B80000000304040403002C
:10038300000038444444F800000000040402010063
:10039300000000400000000000000010000000000A
:1003A30000000000200000000000002038000000D2
:1003B3000080804040202000000000010102020074
:1003C30000404040404040000001010101010100A4
:1003D3000020204040808000000202010100000054
:1003E3000020101090E00000000000160100000043
:1003F30000C040A0A0A060C00F1817141205060388
:100403000000E030C000000018070202030E1000D5
:1004130000F0101010E00000001F1111110E000079
:1004230000C0201010102000000708101010080052
:10043300F01010101020C0001F101010100807003B
:1004430000F0101010100000001F11111110000017
:1004530000F0101010100000001F01010100000047
:10046300C0201010101020000708101010100E00EC
:10047300F00000000000F0001F01010101011F0056
:10048300000000F0000000000000001F000000005A
:1004930000000000F0000000000010100F0000003A
:1004A30000F0008060100000001F0102040810002B
:1004B30000F0000000000000001F101010100000EA
:1004C300F0F0000000F0F0001F00070807001F0015
:1004D300F020C0000000F0001F00000106081F000C
:1004E300C02010101020C0000708101010080700CB
:1004F30000F0101010E00000001F010101000000D7
:10050300C02010101020C0000708101010286740EA
:1005130000F0101010E00000001F01010708100098
:1005230000E090101020000000081111130E0000CD
:10053300101010F0101010000000001F0000000049
:1005430000F000000000F000000F101010100F006A
:1005530000708000000080700000010E100E01008A
:1005630000F00000F00000F0000106180718060173
:10057300001060808060100000180403030418005A
:1005830010608000806010000000001F0000000069
:1005930000101010D03000000018161110100000C9
:1005A300000000F8080000000000007F4000000089
:1005B300000C708000000000000000010E1000001D
:1005C30000000008F8000000000000407F00000069
:1005D3000060180618600000000000000000000022
:1005E30000000000000000000040404040400000C8
:1005F30000000206040000000000000000000000EC
:100603000000804040800000000C12120A0F10000E
:1006130000F8804040408000001F081010100F00B9
:100623000080404040800000000F101010080000C0
:10063300008040404080F800000F101010081F0099
:100643000080404040800000000F1212120B000097
:10065300000040F0480800000000001F00000000F8
:10066300008040404080C0000027484848443F0085
:1006730000F8804040800000001F0000001F0000C1
:10068300000000D0000000000000001F0000000078
:1006930000000000D0000000000040403F000000C8
:1006A30000F80000C0000000001F02050810000051
:1006B300000000F8000000000000001F0000000020
:1006C300C04040C04040C0001F00001F00001F008A
:1006D30000C0804040800000001F0000001F000099
:1006E3000080404040408000000F101010100F00A9
:1006F30000C0804040408000007F081010100F00B1
:10070300008040404080C000000F101010087F00A0
:100713000000C0804000000000001F000000000037
:10072300000080404080000000000912120C00000D
:10073300000040E0404000000000000F10100000E7
:1007430000C0000000C00000000F1010081F0000D0
:1007530000C0000000C0000000010E100E010000E8
:1007630000C00000C00000C00007180601061807FB
:1007730000408000008040000010080705081000BA
:1007830000C0000000C000000001661C0300000060
:100793000040404040C00000001814121110000037
:1007A300000000E0100000000000023D40000000D7
:1007B300000000F0000000000000007F00000000C7
:1007C300000010E0000000000000403D02000000B7
:1007D30000C040408080C000000000000000000016
:1007E3000080E09808180000003C030000000000AF
:1007F3000000000000000000000020182018000086
:1008030000000000000000001000001000001000B5
:10081300002020FC202000000000001F000000003A
:10082300002020FC202000000002021F0202000022
:1008330000000402020400000000000000000000A9
:1008430000304830804020100804020D120C120CB6
:1008530000E092141422000000081111130E00008E
:10086300000040A010000000000000000100000094
:1008730000804040C0404040070810101F12121271
:1008830000FE02020202FE0000010101010101005B
:10089300002024282828A460001018141211101016
:1008A3000000000C02000000000000000000000037
:1008B3000000000806000000000000000000000027
:1008C30000000C020C020000000000000000000009
:1008D30000000806080600000000000000000000F9
:1008E300000000C0C0000000000000000000000085
:1008F30000404040404000000000000000000000B5
:1009030040404040404040400000000000000000E4
:100913000020103020100000000000000000000044
:1009230010F010C060E060C0001F001F001F001F18
:10093300000088505088000000000912120C0000CB
:10094300000010A0400000000000010000000000B3
:1009530000808080008080000F1010100F12120B97
:10096300004048505050C8000010181412111000D5
:1009730010608600866010000000001F0000000069
:10098300000000A0000000000000001F00000000A5
:1009930000806020F0204000000304081F080400CA
:1009A3000000E0101030000000111F1110100000B3
:1009B30010E0202020E010000403020202030400E0
:1009C30000304080403000000005051F0505000091
:1009D300000000F0000000000000003C00000000E8
:1009E30000D8242444C8000000091112120D00008D
:1009F3000000300030000000000000000000000094
:100A0300804020A0A0A040800708131414140807F6
:100A130000003A2A3E200000000000000000000011
:100A23000040A050A01000000000000100010000E1
:100A33000002020202020E0000000000000000009B
:100A4300000002020200000000000000000000009D
:100A5300C020D0D0D020C00001020504050201004F
:100A63000002020202020200000000000000000077
:100A73000000040A04000000000000000000000061
:100A8300404040F0404040000404040504040400D6
:100A9300000034322A26000000000000000000009D
:100AA3000000222A360000000000000000000000C1
:100AB3000000040602000000000000000000000027
:100AC30000F0000000F00000001F04040207000013
:100AD30000183C3CFC04FC00000000001F001F0049
:100AE3000000008000000000000000000000000083
:100AF30000000000000000000000002810000000BB
:100B0300000000023E0000000000000000000000A2
:100B130000001C22221C0000000000000000000056
:100B23000010A050A04000000001000100000000E0
:100B330020E00080600000000019060D0A1E080076
:100B430020E000806000000000190601121A160060
:100B53002060A00000C0200001110D020D0A1E0834
:100B630000000000D000000000000E131008000079
:100B73000000C428C0000000100E0504050E10007C
:100B83000000C824C0000000100E0504050E10006C
:100B93000008C424C8000000100E0504050E100050
:100BA3000008C42CC8040000100E0504050E100034
:100BB3000000CC20CC000000100E0504050E100030
:100BC3000000DC34DC000000100E0504050E1000EC
:100BD300000000C0C0404040100C0B081F1212124E
:100BE30000E0100808081000000304085828040057
:100BF30000F0121614100000001F11111110000054
:100C030000F0141612100000001F11111110000043
:100C130000F0141212140000001F11111110000033
:100C230000F0161016100000001F11111110000023
:100C330000000206F4000000000000001F00000096
:100C43000000F4060200000000001F000000000086
:100C5300000004F2020400000000001F0000000076
:100C6300000006F0060000000000001F0000000066
:100C730000E0202020408000011F11111008070010
:100C8300F024C2060402F0001F00000106081F0042
:100C9300C02012161420C000070810101008070007
:100CA300C02014161220C0000708101010080700F7
:100CB300C02014121224C0000708101010080700E7
:100CC300C02412161422C0000708101010080700D1
:100CD300C02016101620C0000708101010080700C7
:100CE3000020408080402000000402010102040033
:100CF30000C02010109060D000170C1211100807CC
:100D030000F000020604F000000F101010100F0096
:100D130000F004060200F000000F101010100F0086
:100D230000F004020204F000000F101010100F0076
:100D330000F000060006F000000F101010100F0066
:100D430010608406826010000000001F0000000095
:100D530000F0404040800000001F04040403000032
:100D630000F008C848300000001F001111120C00E9
:100D73000000885850800000000C12120A0F100067
:100D83000000905848800000000C12120A0F100057
:100D93000000904848900000000C12120A0F100047
:100DA3000010885850880000000C12120A0F10001F
:100DB3000000984058800000000C12120A0F100027
:100DC30000009C545C800000000C12120A0F1000FB
:100DD30080808000808000000C12120F12120B0022
:100DE30000C020202040000000070858280400000D
:100DF3000080485850800000000F1212120B0000B0
:100E03000080505848800000000F1212120B00009F
:100E13000080504848900000000F1212120B00008F
:100E23000080584058800000000F1212120B00007F
:100E330000000818D0000000000000001F000000A0
:100E43000000D0180800000000001F000000000090
:100E5300000010C8081000000000001F0000000080
:100E6300000018C0180000000000001F0000000070
:100E73000088685078E08000000F101010100F00F9
:100E830000D0885850880000001F0000001F000099
:100E93000080404858508000000F101010100F00C1
:100EA3000080505848408000000F101010100F00B1
:100EB3000080504848508000000F101010100F00A1
:100EC3000080504858508800000F101010100F0079
:100ED3000080405840588000000F101010100F0081
:100EE300808080A08080800000000002000000005D
:100EF300000080404040C08000100F1C1212110FF0
:100F030000C0081810C00000000F1010081F0000D8
:100F130000C0101808C00000000F1010081F0000C8
:100F230000C0100808D00000000F1010081F0000B8
:100F330000C0180018C00000000F1010081F0000A8
:100F430000C0101808C000000001661C0300000068
:100F530000F0804040800000007F0810100F000068
:100F630000C0180018C000000001661C0300000048
:100F730004244484649C40300FC8080828180000E7
:100F830010080601824C2018060106182040800034
:100F9300404042CC0000FC040200FC0404FC0000BE
:100FA3000040201F20404F4442407F4244434000C2
:100FB3008060F80704E4242424FF242424E40400A8
:100FC3000000FF0080814529112F4141818180006C
:100FD3000000FE22222222FE22222222FE00000004
:100FE30080601F020202027F020242827F00000031
:100FF30000003E222A3222FE22322A223E00000034
:101003008868090929C9090F29C9090929C80800D4
:101013000000F808080C0A0908080808F80000008E
:101023000000FF414141414141414141FF00000076
:101033000000C04040407F48484848C808080000B6
:1010430080403704041464041464040710E00000AF
:1010530000FE0222DA0608C8B88FE88888880800EC
:1010630000FF0810080708080808FF080808080018
:101073001060028C0084E41C05C6BC2424E4040034
:1010830004047E010000FF82412618294681800066
:10109300000000007F49494949497F0000000000E2
:1010A30000FF49494949FF00FF49494949FF0000F9
:1010B3000000FE1292B2D2929292D2B29E0000002F
:1010C30040300F0484641F040404FF04040400007C
:1010D300000000FE92929292929292FE0000000013
:1010E30040424458407F4040407F40504846400083
:1010F30040404242424242C2424242424240400097
:10110300201008060040807F000000020408300021
:101113001060020CC0021EE2020202E21E00000086
:1011230004047C0380804020130C13204080800043
:10113300100C042424242526A464240404140C0081
:10114300020202020242827F020202020202020041
:10115300000000FE0000000000000000000000008E
:101163000000003300000000000000000000000049
:101173001010101010FF1010F0101116D0101000E6
:1011830080402018064120103F44424140407800EF
:101193000000F8484848C8484848FF0809CA0800FA
:1011A30080601F828A5623528E4027182641F00002
:1011B3002424A4FEA3220022CC0000FF0000000090
:1011C300080601FF00010404040404FF02020200F4
:1011D300101010FF109008888888FF8888880800FE
:1011E3000444827F01808040432C10284681800084
:1011F3004040484848C8784F48484848484040001D
:10120300000000000312122222528A06000000008E
:101213000010608000FF000000FF0000C0300000ED
:1012230040404043407F4040407F42414040400077
:101233004040484848C8784F4848484848404000DC
:10124300000000000312122222528A06000000004E
:101253001060028C0008080809FA08080808000052
:1012630004047E0140404141417F414141414000EE
:10127300000000000000000000000000000000006B
:10128300000000000000000000000000000000005B
:10129300000000000000000000000000000000004B
:1012A300000000000000000000000000000000003B
:1012B300F0F87CF8F00000000000000000000000DF
:1012C300000000000000000000000000000000001B
:1012D300000000000000000000000000000000000B
:1012E30000000000000000000000000000000000FB
:1012F30000000000000000000000000000000000EB
:1013030000000000000000000000000000000000DA
:1013130000000000000000000000000000000000CA
:1013230000001E3F7F7F0E0C08000000000000003D
:10133300010000000100000000000000080C0E7F07
:101343007F3F1E00000000000000000000000000BE
:10135300000000000000000000000000000000008A
:10136300000000000000000000000000000000007A
:10137300000000000000000000000000000000006A
:10138300000000000000000000000000000000005A
:101393000000000000000000000000000080C0C04A
:1013A300C0C04000000000000000000000000080FA
:1013B300E0FCFFFFF8E080000000000000000000F8
:1013C300000040C0C0C0C0C080000000000000009A
:1013D300000000000000000000000000000000000A
:1013E30000000000000000000000000000000000FA
:1013F30000000000000000000000000000000000EA
:1014030000000000000000000000000000000000D9
:1014130000000000000000000000000003070707B1
:10142300070604000000000000000080E0F8FEFF53
:10143300FFFF3F3FFFFFFFFCF8E0800000000000DC
:101443000000000407070707030000000000000076
:101453000000000000000000000000000000000089
:101463000000000000000000000000000000000079
:101473000000000000000000000000000000000069
:101483000000000000000000000000000000000059
:101493000000000000000000000000000000000049
:1014A3000000E0F0F8FCE0E0F8FCFFFFFFFFFF7F47
:1014B3000F010000010F3FFFFFFFFFFFFCF8F0FCEF
:1014C300FCF0E0000000000000000000000000004D
:1014D3000000000000000000000000000000000009
:1014E30000000000000000000000000000000000F9
:1014F30000000000000000000000000000000000E9
:1015030000000000000000000000000000000000D8
:1015130000000000000000000000000000000000C8
:101523000030393F3F3F3F3F3F3F3F1F0F03000026
:101533001F3E7C7C3E000000030F1F3F3F3F3F3FA9
:101543003F3F3F3830200000000000000000000053
:101553000000000000000000000000000000000088
:101563000000000000000000000000000000000078
:101573000000000000000000000000000000000068
:10158300000000000000000000000010FC7C0C0CB8
:101593000C0C8CF87800000080C0404040C0C000B4
:1015A3000000C0C080404040C08000000000000830
:1015B30078C0000000000000C070180000C0800068
:1015C30000008040404040C0000000800000000058
:1015D300C0C000000000C0000000000000000000C8
:1015E30000000000000000000000000000000000F8
:1015F30000000000000000000000000000000000E8
:1016030000000000000000000000002E7F0000002A
:10161300070F39704000001F7F60404040603F1F4C
:1016230000007F7F00000000007F7E0000000000BC
:101633000001073C6060380E03000000007F5F007C
:10164300001F3E4444444447070000073E70700EA9
:1016530001010F38603E030000000000000000009D
:101663000000000000000000000000000000000077
:101A1900E4FEC2B7EF30E704D2B68002C2B6D2B74D
:091A2900EF25E0FF0EEEB408E920
:011A32002291
:0A1A9700C290C2B5121A19D29022B3
:041A7D00121A4CFFEE
:0A1A8100C290D2B5121A19D29022B9
:1018A500D2927F057E001219CEC2927F147E00125D
:1018B50019CED2927F147E001219CE7FE2121A97AA
:1018C5007F0A7E001219CE7FA0121A977FC8121ABE
:1018D500977FA2121A977F2F121A977F25121A97B0
:1018E5007F81121A977F19121A977F40121A977FD4
:0718F500AF121A970219F46B
:0B199D00E02FFFE433FEA3E0FD7C0020
:1019A800ED1D70011CEF24AFFF121A97ECC4F85418
:1019B800F0C8EDC4540F48540F2410FF121A97EDC5
:0619C800540FFF021A9704
:1019F400E4FDED24B0FF121A977F10121A97E4FF4A
:101A0400121A97E4FCE4FF121A810CECB484F60D6C
:041A1400EDB409DE46
:011A180022AB
:1018FC00E4900009F0900009E0FFC394085027EF32
:10190C002401FFE433FE7D017C001219A8E4FD12D2
:10191C001A7D740129F9E43AFA0DEDB480F19000C6
:06192C0009E004F080CF89
:011932002292
:08193300900009EFF0A3EDF0B4
:10193B00E4A3F090000BE0FFC39402501F9000094A
:10194B0012199DE4FD121A7D740129F9E43AFA0D7E
:0C195B00EDB410F190000BE004F080D718
:01196700225D
:08196800900009EFF0A3EDF07F
:10197000E4A3F090000BE0FFC39402501F90000915
:1019800012199DE4FD121A7D740129F9E43AFA0D49
:0C199000EDB408F190000BE004F080D7EB
:01199C002228
:101A33007E007C001219A8E4FD121A7D740129F9B5
:081A4300E43AFA0DEDB405F1DF
:011A4B002278
:101A65007D017C007F027E001219A8E4FD7F08122B
:071A75001A810DEDB480F6AB
:011A7C002247
:0B17EE00900002EFF0A3EDF0A3EBF081
:1017F900A3E024FE603E14606314700302188D1484
:1018090070030218A1240460030218A4900004E0E4
:1018190075F005A42403F9740035F0FA7BFF9000F4
:1018290006EBF0A3EAF0A3E9F0900002E0FFA3E0E1
:10183900FD021A33900004E075F010A424E3F97452
:101849000135F0FA7BFF900006EBF0A3EAF0A3E97B
:10185900F0900002E0FFA3E0FD021968900004E0A7
:1018690075F020A42473F9740F35F0FA7BFF90000A
:1018790006EBF0A3EAF0A3E9F0900002E0FFA3E091
:10188900FD0219337BFF7A127973900006EBF0A3FE
:0B189900EAF0A3E9F00218FC121A6547
:0118A4002221
:1019CE00E4FDFCC3ED9FEE6480F8EC648098501546
:1019DE00E4FBFA0BBB00010ABA03F8BBE8F50DBD38
:0519EE0000010C80DE89
:0119F30022D1
:101A4C00BB010689828A83E0225002E722BBFE0298
:091A5C00E32289828A83E49322CB
:00000001FF
