:10000600FFFFFFFFFE0000000000000000000000F0
:100016000000000000000000000000C0808080801A
:10002600F080808080C080000000E020A0A0A0A01A
:10003600A0A0A0A0A020E00000000080808080801A
:10004600F08080808080000000000000C070A080EA
:100056008090E0A08080808000000000000000000A
:10006600000000000000000000000000000000008A
:1000760000000000000000000000000000FFFFFF7D
:10008600E7EFCF0F070000000000000000000000AF
:1000960000000000000000000000007F202020205B
:1000A600FF202020207F00000000FF008088888835
:1000B600FF8898E88000FF00000000FF44444444A5
:1000C600FF44444444FF000000080403FF0000EA24
:1000D6002A2A2A2A2AEA000000000000000000005E
:1000E600000000000000000000000000000000000A
:1000F600000000000000000000000000000F1F9F2D
:10010600FFFF7F000000000000000000000000006C
:1001160000000000000000000000000000000000D9
:100126000F0000000000000000000F040404040497
:100136000404040404040F00000000000000000092
:100146000304040404040407000000000700000779
:100156000202020202070000000000000000000088
:100166000000000000000000000000000000000089
:100176000000000000000000000000000000FFFF7B
:10018600FCFC000000000000000000000000000071
:1001960000000000000000000000C6A19189860052
:1001A6007E8181817E000082FF8000000082FF80C8
:1001B60000000808080808000082FF80000000828E
:1001C600FF800000080808080800C6A1918986007B
:1001D6007E8181817E00000000000000000000009A
:1001E6000000000000000000000000000000000009
:1001F6000000000000000000000000000000E1E335
:100206000F070000000000000000000000000000D2
:1002160000000000000000000000000000000000D8
:1002260000000000000000000000000000000000C8
:1002360000000000000000000000000000000000B8
:1002460000000000000000000000000000000000A8
:100256000000000000000000000000000000000098
:100266000000000000000000000000000000000088
:1002760000000000000000000000000000007F7F7A
:10028600040464A4243E64A4243E24A46404040058
:100296000000F050525C54F050585654F0000000E4
:1002A6000000000000000000000000000000000048
:1002B6000000000000000000000000000000000038
:1002C6000000000000000000000000000000000028
:1002D60080828C0000E4A4A4ACF4B4ACE40000007A
:1002E600008060F80E145050525C545050101000AC
:1002F60040404454545454D4545454FC4040400058
:100306000084844425140CFE0C142564C4440400A3
:1003160010101712121212FF1212121217101000DA
:1003260000000000000000000000000000000000C7
:1003360000000000000000000000000000000000B7
:1003460000000000000000000000000000000000A7
:1003560080403F4080BF848484BF94A49F808000F7
:10036600010000FF0000FD4545454545FD00000034
:1003760000206021129408FF040A11316020000059
:100386000000000000000001000000000000000066
:100396000000000000000001000000000000000056
:1003A6000000000000000000000000000000000047
:1003B6000000000000000000000000000000000037
:1003C6000000000000000000000000000000000027
:1003D6000000000000000000000000000000000017
:1003E6000000000000000000000000000000000007
:1003F60000000000000001000000000000000000F6
:03072E00010B06B6
:0406C2007F8A7E02AB
:1006C600E4FCFDC3ED9FEC9E50180DBD00010CE44B
:1006D600FAFBC3EB94A5EA940050E80BBB00010AB1
:0206E60080F0A2
:0106E80022EF
:10070600D2817F647E001206C6C2817FF40E120675
:0A071600C6D2817FE87E030206C60A
:05069000E50924B0FFA4
:020695008F0ACA
:10069700C280D283C282E4F9E50A339284C2837F9F
:1006A700017E001206C6D2831F1206C6E50A25E0A0
:0A06B700F50A09B908E2D282D280E8
:0106C1002216
:1006E900C280D283D282E4FEEF339284C283D28362
:0C06F900EF25E0FF0EBE08F0C282D280A8
:0107050022D1
:10064D007FE21206957FA21206957FA01206957F76
:10065D00C81206957FA41206957FA61206957F25D2
:10066D001206957F811206957F1A1206957F2F121D
:10067D0006957F401206957FAF1206957F647E002A
:03068D000206C69C
:10040600E4F5091206907F10120695E4FF12069590
:10041600E4F5087FFF1206E90508E508C394804065
:10042600F20509E509C3940840D97FE87E03120660
:10043600C6E4F5091206907F10120695E4FF12062F
:1004460095E4F508E4FF1206E90508E508C394807B
:1004560040F20509E509C3940840D91206C2E4F53D
:10046600091206907F10120695E4FF120695E4F530
:1004760008E508C3948050107FFF1206E9E4FF12D6
:1004860006E90508050880E90509E509C394084059
:10049600D01206C2E4F5091206907F10120695E402
:1004A600FF120695E4F508E508C394805010E4FFB2
:1004B6001206E97FFF1206E90508050880E9050925
:1004C600E509C3940840D01206C2E4F50912069065
:1004D6007F10120695E4FF120695E4F5087FAA122E
:1004E60006E90508E508D3948040F20509E509C345
:1004F600940840D91206C2E4F5091206907F10123C
:100506000695E4FF120695E4F5087F551206E905FF
:1005160008E508C3948040F20509E509C39408403C
:10052600D91206C2E4F5091206907F10120695E468
:10053600FF120695E4F50875F080E509A42508F58F
:1005460082E435F0F583E5822406F582E5833400FE
:10055600F583E493FF1206E90508E508C394804095
:10056600D60509E509C3940840BD7FE87E03020667
:01057600C6BE
:0E07200075A88112070612064D12040680FB12
:03000300020603EF
:10060300C0E0C0D075D000C002C003C004C005C0A4
:1006130006C007800320B2097F647E001206C680ED
:10062300F430B2097F647E001206C680F420B2095A
:100633007F647E001206C680F4D007D006D005D0B2
:0A06430004D003D002D0D0D0E03282
:030000000205777F
:0C057700787FE4F6D8FD75810B0205BE0C
:10058300020720E493A3F8E493A34003F68001F267
:1005930008DFF48029E493A3F85407240CC8C33379
:1005A300C4540F4420C8834004F456800146F6DF48
:1005B300E4800B010204081020408090072EE47EA3
:1005C300019360BCA3FF543F30E509541FFEE4933D
:1005D300A360010ECF54C025E060A840B8E493A304
:1005E300FAE493A3F8E493A3C8C582C8CAC583CA2F
:1005F300F0A3C8C582C8CAC583CADFE9DEE780BEE7
:0107310000C7
:00000001FF
