:020000040800F2
:1000000038040020A5140008B5140008B71400082F
:10001000B9140008BB140008BD140008000000005B
:10002000000000000000000000000000BF140008F5
:10003000C114000800000000C31400087713000872
:10004000F5140008F9140008FD1400080115000853
:1000500005150008091500080D1500081115000800
:1000600015150008191500081D15000821150008B0
:1000700025150008291500082D1500083115000860
:1000800035150008391500083D1500084115000810
:1000900045150008491500084D15000851150008C0
:1000A00055150008591500085D1500086115000870
:1000B00065150008691500086D1500087115000820
:1000C00075150008791500087D15000881150008D0
:1000D00085150008531100088D15000891150008BA
:1000E000870D0008991500089D15000880B50121AD
:1000F000042000F040FDA020ADF8000000A903207E
:100100008DF8020010208DF80300DFF8E80100F000
:1001100045FD0121082000F02EFD3C20ADF8000037
:1001200000A903208DF8020010208DF80300DFF8ED
:10013000C80100F033FD01BDF8B50446DFF8B85141
:10014000202128460161C046102128460161C04691
:100150000BE0F8B50446DFF8A051202128460161E4
:10016000C046102128464161C046DFF88861202141
:1001700030460161C046202128464161C04608271B
:10018000202130464161C046200604D580213046FA
:100190000161C04603E0802130464161C046202114
:1001A00030460161C04664007F1EE9D12846BDE8A3
:1001B000F440202100F058BD10B5FFF797FF0A204A
:1001C000C046C046DFF83041082120464161C046A4
:1001D0000220C046C046082120460161C0460420D6
:1001E000C046C046E220FFF7B4FFA220FFF7B1FFF0
:1001F000A020FFF7AEFFC820FFF7ABFFA420FFF75A
:10020000A8FFA620FFF7A5FF2520FFF7A2FF81206A
:10021000FFF79FFF1A20FFF79CFF2F20FFF799FFA2
:100220004020FFF796FFBDE81040AF2091E72DE991
:10023000F84F88460FF2C401DFF8B890DFF8B8A095
:1002400001EB802000250090A5F15000C0B2FFF71F
:1002500080FF0098002400EBC516200940F0100034
:10026000FFF777FF04F00F00FFF773FFB8F1010FFE
:1002700003D13078FFF760FF31E0B8F1000F2ED1E5
:100280003078C743202150460161C04610215046B6
:100290000161C046202148460161C04620215046E8
:1002A0004161C0464FF0080B202148464161C046DD
:1002B000380604D5802148460161C04603E080210C
:1002C00048464161C046202148460161C0467F0042
:1002D000BBF1010BE8D1202150460161C046641CEE
:1002E000761C802CB9DB6D1C082DADDBBDE8F18FD1
:1002F0000000000000080140000C01400000000068
:1003000000000000000000000000000000000000ED
:10031000000000000000000000000000000000C01D
:10032000C0E0E0E0E0F0F0F8F8F878787C7C7C7CE5
:100330007C7E7E7E7EFFFFFFFFFFFFFFFFFFFFFF54
:10034000FF7F3F3E3E3E3E3E3C3C3C7C7C787878A6
:10035000F8F8F0E0E0E0E0C08000000000000000FD
:10036000000000000000000000000000000000008D
:10037000000000000000000000000000000000007D
:10038000000000000000000000000000000000006D
:100390000000000000000000000020381E0F0707CA
:1003A0000301010101010080C0C0C0C0C0C0C0C0C5
:1003B00080000000000001FFFFFFFFFFFFFFFF01C3
:1003C000000000000080C0C0C0C0C0C0C0C0C0806D
:1003D0000000010101010107070F0E3C00000000B1
:1003E000000000000000000000000000000000000D
:1003F00000000000000000000000000000000000FD
:1004000000000000000000000000000000000000EC
:1004100000000000000000000000000000000000DC
:100420000000040607070303030303030303070F86
:10043000FFFFFF00000000FFFFFFFFFFFFFFFF00C7
:1004400000000000FFFF1F0F070303030303030364
:100450000307060604000000000000000000000082
:10046000000000000000000000000000000000008C
:10047000000000000000000000000000000000007C
:10048000000000000000000000000000000000006C
:10049000000000000000000000000000000000005C
:1004A000000000000000008000000000000080E06C
:1004B000FFFF3F00000000FFFFFFFFFFFFFFFF0007
:1004C00000000000FFFFFFC00000000000008000EF
:1004D000000000000000000000000000000000001C
:1004E000000000000000000000000000000000000C
:1004F00000000000000000000000000000000000FC
:1005000000000000000000000000000000000000EB
:1005100000000000000000000000000000000000DB
:1005200000000000000000000101030303030303B7
:100530000101000000000003FFFFFFFFFFFF3F007D
:100540000000000000010303030303030101010095
:10055000000000000000000000000000000000009B
:10056000000000000000000000000000000000008B
:10057000000000000000000000000000000000007B
:10058000000000000000000000000000000000006B
:10059000000000000000000000000000000000005B
:1005A000000000000000000000000000000000004B
:1005B00000000000000000003FFFFFFFFFFF000001
:1005C000000000000000000000000000000000002B
:1005D000000000000000000000000000000000001B
:1005E000000000000000000000000000000000000B
:1005F00000000000000000000000000000000000FB
:1006000000000000000000000000000000000000EA
:1006100000000000000000000000000000000000DA
:1006200000000000000000000000000000000000CA
:100630000000000000000000003FFFFFFF0100007D
:1006400000000000000000000000000000000000AA
:10065000000000000000000000000000000000009A
:10066000000000000000000000000000000000008A
:10067000000000000000000000000000000000007A
:10068000000000000000000000000000000000006A
:10069000000000000000000000000000000000005A
:1006A000000000000000000000000000000000004A
:1006B000000000000000000000003FFF0F000000ED
:1006C000000000000000000000000000000000002A
:1006D000000000000000000000000000000000001A
:1006E000000000000000000000000000000000000A
:1006F00000000000000000000000000000000000FA
:1007000000000000000000000000000000000000E9
:1007100000000000000000000000000000000000D9
:1007200000000000000000000000000000000000C9
:1007300000000000000000000000000000000000B9
:1007400000000000000000000000000000000000A9
:100750000000000000000000000000000000000099
:100760000000000000000000000000000000000089
:100770000000000000000000000000000000000079
:1007800000000000000000000000000000000080E9
:10079000E0701808040484FC7800000000000000E9
:1007A0000000000000000000000000000000000049
:1007B000000000000000C0E03018080C84640C0049
:1007C0000000000000000000000000000000000029
:1007D0000000000000000000000000000000000019
:1007E00080C0000000808080808080800000000049
:1007F00000000000000000000000000000000000F9
:100800000000000000000000000000000000000FD9
:1008100040800080F0FC4FE3F0703018B8E0C0C0BA
:10082000E0701080C04060F0F000000000000000A8
:100830000000C0F83E0F01000080C243201040605D
:100840002090F87800008080C0E0F0503838908028
:10085000C0C0C0603030B0F0F01080C6723A0F07F0
:100860000383C1E1F151393990804000000000005C
:100870000000000000000000000000000000000078
:1008800000000000000000000000000080E0308850
:10089000E43A1F07010000030404040203000001FE
:1008A00003834120E0701E0F0808081000000000BC
:1008B0000000030704040406030100000000000018
:1008C00000070406020301000306060602030100F6
:1008D00007070402010100030301010306060203E6
:1008E00001010306060602030100000000000000EB
:1008F00000000000000000000000000000000000F8
:1009000000000000000000000000000007060601D3
:100910000000000000000000000000000000002CAB
:1009200062381C0701000000000000000000000009
:1009300000000000000000000000000000000000B7
:1009400000000000000000000000000000000000A7
:100950000000000000000000000000000000000097
:100960000000000000000000000000000000000087
:100970000000000000000000000000000000000077
:100980000000000000000000000000000000000067
:100990000000000000000000000000000000000057
:1009A0000000000000000000000000000000000047
:1009B0000000000000000000000000000000000037
:1009C0000000000000000000000000000000000027
:1009D0000000000000000000000000000000000017
:1009E0000000000000000000000000000000000007
:1009F00000000000000000000000000000000000F7
:100A000000000000000000000000000000000000E6
:100A100000000000000000000000000000000000D6
:100A200000000000000000000000000000000000C6
:100A300000000000000000000000000000000000B6
:100A400000000000000000000000000000000000A6
:100A50000000000000000000000000000000000096
:100A60000000000000000000000000000000000086
:100A70000000000000000000000000000000000076
:100A80000000000000000000000000000000000066
:100A90000000000000000000000000000000000056
:100AA0000000000000000000000000000000000046
:100AB0000000000000000000000000000000000036
:100AC0000000000000000000000000000000000026
:100AD0000000000000000000000000000000000016
:100AE0000000000000000000000000000000000006
:100AF00000000000000000000000000010B42249C7
:100B00000A6802F00C02082A0FD10A680B68C2F3C7
:100B10008342921CDB0358BF1C4B04D50B689B031C
:100B20004CBF1A4B1A4B5A4300E0194A02600B683B
:100B3000184A0468C3F303139B5C24FA03F343606D
:100B40000B684468C3F302239B5C24FA03F38360BD
:100B50000B684468C3F3C2239B5C24FA03F3C360AD
:100B60000968C368C1F381318918097CB3FBF1F1CD
:100B7000016110BC7047084A0029116814BF08437E
:100B800021EA0000106070470410024000093D0097
:100B900000127A0000000020181002402DE9F041F8
:100BA000CC78002204F00F03E40644BF8C78234382
:100BB0000C88E5B225B3D0F800C001250F2605FA50
:100BC00002F7BE460EEA0408F04514D14FEA820E41
:100BD00006FA0EF82CEA080C03FA0EFE4EEA0C0C8C
:100BE00091F803E0BEF1280F08BF476103D0BEF1C2
:100BF000480F08BF0761521C082AE0D3C0F800C0A4
:100C0000FF2C28DDD0F804C0002201250F2602F1B8
:100C1000080705FA07F7BE460EEA0408F04515D1A5
:100C20004FEA820E06FA0EF82CEA080C03FA0EFEC2
:100C30004EEA0C0C91F803E0BEF1280F08BF4761A3
:100C400091F803E0BEF1480F08BF0761521C082A63
:100C5000DDD3C0F804C0BDE8F081806800220842FE
:100C600018BF0122104670470161704770B41F4AD7
:100C700000284CBF9469146800F44016C0F3034583
:100C800083B2B6F5401F06D1156825F0706524F0D3
:100C9000706415600CE0C60203D5032606FA05F55C
:100CA00003E0450D2D0103FA05F5AC4344F07064F3
:100CB00021B1410D090103FA01F10C4300284CBF99
:100CC0009461146070BC704730B401F0030221F0ED
:100CD0000301074B9200CC580F259540AC43CC50F4
:100CE0009040CC582043C85030BC704704000140AD
:100CF0000800014010B584B001210920FFF73BFF37
:100D000004208DF807004FF4F04403208DF806000E
:100D1000ADF8044001A94D48FFF740FF0B21012029
:100D2000FFF7D2FF0C210120FFF7CEFF0D2101209C
:100D3000FFF7CAFF0E210120FFF7C6FF00208DF844
:100D40000C0002940C208DF80D0001208DF80E008F
:100D500002A800F07FF84FF4E06000F0BFF84FF415
:100D6000E06000F0BBF828208DF8000000208DF82E
:100D700001008DF8020001208DF8030000A800F0AA
:100D8000B2F804B010BD10B5314C4FF4006000F063
:100D900095F888B14FF400612C48FFF75EFF38B931
:100DA00020780428ACBF0020401C20700120607017
:100DB0004FF4006000F08AF84FF4805000F07EF8A5
:100DC00088B14FF480512148FFF747FF38B92079A7
:100DD0000428ACBF0020401C2071012060714FF43A
:100DE000805000F073F84FF4005000F067F888B1BD
:100DF0004FF400511548FFF730FF38B9207A042826
:100E0000ACBF0020401C2072012060724FF40050E3
:100E100000F05CF84FF4804000F050F8A0B14FF4BF
:100E200080410A48FFF719FF40B920780428AEBF77
:100E30000020207B401C2073012060734FF4804011
:100E4000BDE8104000F042B810BD0000000C0140A9
:100E50001400002030B401688279CB431D4932B3BD
:100E60000A4614682340136053680468A343536020
:100E70000379CC18236805682B43236093680468C2
:100E8000A3439360D3680468A343D36043790568A0
:100E9000102B08D1916829439160D16800680843FC
:100EA000D06030BC7047CC182068284303E000793C
:100EB0000C1820681840206030BC7047064A126841
:100EC0000021024218BF01210846704700BF0249B5
:100ED00008607047000401401404014019490843A8
:100EE00019490860704770B40378C4781A46012124
:100EF000ECB1154B1B68447803F4E063C3F5E06381
:100F00001B0AC3F10405AC4085780F2626FA03F3CB
:100F10002B4023430D4C1B011355007800F01F029A
:100F200091400B4A400942F8201070BC704703F012
:100F30001F0001FA00F00749520941F8220070BC75
:100F4000704700000000FA050CED00E000E400E04E
:100F500000E100E080E100E030B5044685B00D46D8
:100F6000208A4CF6FF710840E988084320824EF63B
:100F7000F311A0890840A988084329890843698991
:100F80000843A0814FF6FF41A08A0840A989084381
:100F9000A08200A8FFF7B2FD154884420CBF039859
:100FA0000298296819225043A28912044CBF4900B3
:100FB0008900B0FBF1F16420B1FBF0F000010209FF
:100FC000642303FB1211A289120406D5C900323131
:100FD000B1FBF3F101F0070105E009013231B1FB8A
:100FE000F3F101F00F010843208105B030BD00008E
:100FF000003801400029818912BF41F400514DF6AB
:10100000FF721140818170470B065B0F4FF0010C9E
:1010100001F01F010CFA01F1012B08BF0C3003D0C5
:10102000022B0CBF10301430002A026814BF114389
:1010300022EA0101016070478088C005C00D704739
:1010400023E030B40A46130600215B0F012402F0AE
:101050001F0504FA05F5012B08BF838903D0022B75
:101060000CBF038A838A120A008804FA02F22B401A
:101070001040002B1CBF0028012130BC08467047DF
:101080000122090A02FA01F189B2C94301807047BD
:1010900080B5012144F20500FFF76DFD00F015F861
:1010A0004FF4C060FFF71AFF25208DF800000020E4
:1010B0008DF801008DF8020001208DF8030000A8D2
:1010C000FFF711FF00F021F801BD10B582B04FF419
:1010D0000070ADF8000018208DF8030003208DF893
:1010E000020000A9354C2046FFF758FD4FF4806000
:1010F000ADF8000000A904208DF8030003208DF84E
:1011000002002046FFF74AFD13BD10B584B04FF42E
:10111000165000900020ADF80C000C20ADF80A002D
:1011200000200190ADF8080000A9224C2046FFF7EE
:1011300013FF40212046FFF783FF01212046FFF7E0
:1011400059FF012240F225512046FFF75DFF04B010
:1011500010BD38B5174C40F2255529462046FFF7FB
:1011600070FF00B32046FFF767FF13490A7AD2B930
:10117000C0B2AA2808BF08700DD0F92808BF48706F
:1011800009D0DD2808BF887105D0CA79521890703F
:10119000C879401CC871C879042804DB8879DD2827
:1011A00004BFFF20087229462046BDE83440FFF7FF
:1011B00067BF000000380140240000200008014003
:1011C0003548364A82B0016841F00101016041684A
:1011D00011404160324A016811400160016821F408
:1011E00080210160416821F4FE0141604FF41F013C
:1011F0008160002101910091016841F4803101601A
:10120000016801F4003100910199491C0191009994
:1012100019B90199B1F5A06FF2D10168490C01F03B
:10122000010100910099012930D11E490A6842F05C
:1012300010020A600A68920892000A600A6842F086
:1012400002020A604168416041684160416841F4BE
:1012500080614160416821F47C114160416841F442
:10126000E8114160016841F0807101600168890105
:10127000FCD54168890889004160416841F002015C
:101280004160416801F00C010829FAD14FF000607B
:101290000549086002B07047001002400000FFF8E6
:1012A000FFFFF6FE0020024008ED00E038B5012106
:1012B0000120FFF760FC01212748FFF7D7FCFFF76B
:1012C0007FFF00F04DF800F071F8FFF713FDFFF716
:1012D000DFFEFEF771FF214804210161C0460024B2
:1012E000A4F15000C0B2FEF734FF0025281100F031
:1012F0000F001030C0B2FEF72CFF05F00F00FEF714
:1013000028FF0020FEF718FF6D1C802DEEDB641C0B
:10131000082CE5DB01210020FEF789FF4FF4FA607D
:1013200000F031F801210120FEF781FF4FF4FA604F
:1013300000F029F800210846FEF779FF4FF4FA6023
:1013400000F021F800210120FEF771FF4FF4FA6050
:1013500000F019F8DEE700BF00023000000C014089
:101360000E480F490F4A4160F02111700021816041
:1013700007210160704700BF0B48016811B1016887
:10138000491E0160704701B4074800990160016877
:101390000029FCD101B070470000000010E000E01F
:1013A0003F19010023ED00E03000002080B501214D
:1013B0000C20FFF7E0FB4FF40440ADF8000000A95B
:1013C00010208DF8030003208DF802000848FFF775
:1013D000E5FB4FF4C050ADF8000000A910208DF8D7
:1013E000030003208DF802000248FFF7D7FB01BD80
:1013F000000C01400008014010B450F8041B81B1FA
:1014000002681218001D50F8043BDC0744BFA9F124
:101410000104E31852F8044B43F8044B091FF9D1B7
:10142000EBE710BC7047000010B50749794418314C
:10143000064C7C44163404E00A68081D511888479D
:101440000146A142F8D110BD0800000018000000BC
:10145000A9FFFFFF34000000480100000000002049
:10146000000000000120C046002801D0FFF7DCFF8B
:101470000020C046C046FFF719FF00F000F800F05A
:1014800001B800000746384600F002F8FBE700000C
:1014900080B5C046C046024A11001820ABBEFBE72B
:1014A000260002000148804701480047C11100089A
:1014B000C51400087047FEE7FEE7FEE7FEE7704749
:1014C00070477047C046C046C046C046FFF7CAFFD7
:1014D000FFF7F0BFFFF7EFBFFFF7EEBFFFF7EDBF7E
:1014E000FFF7ECBFFFF7EBBFFFF7EABFFFF7E9BF7E
:1014F000FFF741BFFFF7FEBFFFF7FEBFFFF7FEBFDD
:10150000FFF7FEBFFFF7FEBFFFF7FEBFFFF7FEBF0F
:10151000FFF7FEBFFFF7FEBFFFF7FEBFFFF7FEBFFF
:10152000FFF7FEBFFFF7FEBFFFF7FEBFFFF7FEBFEF
:10153000FFF7FEBFFFF7FEBFFFF7FEBFFFF7FEBFDF
:10154000FFF7FEBFFFF7FEBFFFF7FEBFFFF7FEBFCF
:10155000FFF7FEBFFFF7FEBFFFF7FEBFFFF7FEBFBF
:10156000FFF7FEBFFFF7FEBFFFF7FEBFFFF7FEBFAF
:10157000FFF7FEBFFFF7FEBFFFF7FEBFFFF7FEBF9F
:10158000FFF7FEBFFFF7FEBFFFF7E3BDFFF7FEBFAC
:10159000FFF7FEBFFFF7F7BBFFF7FEBFFFF7FEBF8A
:1015A0000000000001020304010203040607080909
:1015B0000204060800000000000000000000000017
:1015C000000000000000000000000000000000001B
:0415D0000000000017
:04000005080014C516
:00000001FF
