:020000040800F2
:10000000380400206D0C00087D0C00087F0C0008EF
:10001000810C0008830C0008850C0008000000001B
:10002000000000000000000000000000870C000835
:10003000890C0008000000008B0C0008530B00081E
:10004000BD0C0008C10C0008C50C0008C90C000854
:10005000CD0C0008D10C0008D50C0008D90C000804
:10006000DD0C0008E10C0008E50C0008E90C0008B4
:10007000ED0C0008F10C0008F50C0008F90C000864
:10008000FD0C0008010D0008050D0008090D000811
:100090000D0D0008110D0008150D0008190D0008C0
:1000A0001D0D0008210D0008250D0008290D000870
:1000B0002D0D0008310D0008350D0008390D000820
:1000C0003D0D0008410D0008450D0008490D0008D0
:1000D0004D0D00085B090008550D0008590D00087A
:1000E0008F050008610D0008650D000880B501212D
:1000F000042000F042F9A020ADF8000000A9032080
:100100008DF8020010208DF80300454800F048F9F2
:100110000121082000F031F93C20ADF8000000A9D1
:1001200003208DF8020010208DF803003D4800F0F8
:1001300037F901BDF8B504463A4D20212846016142
:10014000C046102128460161C0460AE0F8B50446C1
:10015000344D202128460161C046102128464161C6
:10016000C0462F4E202130460161C046202128463E
:100170004161C0460827202130464161C046200623
:1001800004D5802130460161C04603E0802130461D
:100190004161C046202130460161C04664007F1E97
:1001A000E9D12846BDE8F440202100F05FB910B540
:1001B000FFF79CFF1B4C0821204600F059F9022054
:1001C000C046C046082120460161C0460420C04602
:1001D000C046E220FFF7BAFFA220FFF7B7FFA0203A
:1001E000FFF7B4FFC820FFF7B1FFA420FFF7AEFF71
:1001F000A620FFF7ABFF2520FFF7A8FF8120FFF720
:10020000A5FF1A20FFF7A2FF2F20FFF79FFF402036
:10021000FFF79CFFBDE81040AF2097E7000000000B
:1002200000080140000C0140F8B550380D46144656
:10023000C0B2FFF78BFF04EB84060FF2900728098A
:10024000F41940F01000FFF781FF05F00F00FFF7F1
:100250007DFFF05DFFF76EFF6D1CEDB2280940F0E9
:100260001000FFF773FF05F00F00FFF76FFF6078D6
:10027000FFF760FF6D1CEDB2280940F01000FFF79A
:1002800065FF05F00F00FFF761FFA078FFF752FF51
:100290006D1CEDB2280940F01000FFF757FF05F084
:1002A0000F00FFF753FFE078FFF744FF6D1CEDB23E
:1002B000280940F01000FFF749FF05F00F00FFF795
:1002C00045FF2079BDE8F24034E700007E8181815E
:1002D0007E0082FF8000000000000000000000009F
:1002E000000000000000000000000000000000000E
:1002F00000000000000000000000000000000000FE
:1003000010B422490A6802F00C02082A0FD10A68C8
:100310000B68C2F38342921CDB0358BF1C4B04D50D
:100320000B689B034CBF1A4B1A4B5A4300E0194A07
:1003300002600B68184A0468C3F303139B5C24FA39
:1003400003F343600B684468C3F302239B5C24FA05
:1003500003F383600B684468C3F3C2239B5C24FAF5
:1003600003F3C3600968C368C1F381318918097C4C
:10037000B3FBF1F1016110BC7047084A0029116814
:1003800014BF084321EA00001060704704100240C7
:1003900000093D0000127A00000000201810024001
:1003A0002DE9F041CC78002204F00F03E40644BFAD
:1003B0008C7823430C88E5B225B3D0F800C0012522
:1003C0000F2605FA02F7BE460EEA0408F04514D1DE
:1003D0004FEA820E06FA0EF82CEA080C03FA0EFE1B
:1003E0004EEA0C0C91F803E0BEF1280F08BF4761FC
:1003F00003D0BEF1480F08BF0761521C082AE0D3A2
:10040000C0F800C0FF2C28DDD0F804C00022012570
:100410000F2602F1080705FA07F7BE460EEA0408A0
:10042000F04515D14FEA820E06FA0EF82CEA080CB8
:1004300003FA0EFE4EEA0C0C91F803E0BEF1280F11
:1004400008BF476191F803E0BEF1480F08BF07619C
:10045000521C082ADDD3C0F804C0BDE8F0818068D2
:100460000022084218BF0122104670470161704700
:100470004161704770B41F4A00284CBF94691468EA
:1004800000F44016C0F3034583B2B6F5401F06D111
:10049000156825F0706524F0706415600CE0C602E4
:1004A00003D5032606FA05F503E0450D2D0103FAF1
:1004B00005F5AC4344F0706421B1410D090103FA24
:1004C00001F10C4300284CBF9461146070BC70476C
:1004D00030B401F0030221F00301074B9200CC5825
:1004E0000F259540AC43CC509040CC582043C85089
:1004F00030BC7047040001400800014010B584B0D2
:1005000001210920FFF739FF04208DF807004FF47F
:10051000F04403208DF80600ADF8044001A94D48D1
:10052000FFF73EFF0B210120FFF7D2FF0C21012036
:10053000FFF7CEFF0D210120FFF7CAFF0E2101209A
:10054000FFF7C6FF00208DF80C0002940C208DF8F8
:100550000D0001208DF80E0002A800F07FF84FF486
:10056000E06000F0BFF84FF4E06000F0BBF8282036
:100570008DF8000000208DF801008DF802000120A8
:100580008DF8030000A800F0B2F804B010BD10B55B
:10059000314C4FF4006000F095F888B14FF40061E1
:1005A0002C48FFF75CFF38B920780428ACBF002046
:1005B000401C2070012060704FF4006000F08AF849
:1005C0004FF4805000F07EF888B14FF480512148FC
:1005D000FFF745FF38B920790428ACBF0020401C44
:1005E0002071012060714FF4805000F073F84FF4D7
:1005F000005000F067F888B14FF400511548FFF73C
:100600002EFF38B9207A0428ACBF0020401C20728D
:10061000012060724FF4005000F05CF84FF480400D
:1006200000F050F8A0B14FF480410A48FFF717FFDF
:1006300040B920780428AEBF0020207B401C2073E6
:10064000012060734FF48040BDE8104000F042B8D4
:1006500010BD0000000C01401400002030B40168FF
:100660008279CB431D4932B30A4614682340136094
:1006700053680468A34353600379CC182368056862
:100680002B43236093680468A3439360D368046892
:10069000A343D36043790568102B08D1916829439F
:1006A0009160D16800680843D06030BC7047CC18B6
:1006B0002068284303E000790C1820681840206067
:1006C00030BC7047064A12680021024218BF01215F
:1006D0000846704700BF02490860704700040140A7
:1006E000140401401949084319490860704770B45F
:1006F0000378C4781A460121ECB1154B1B68447885
:1007000003F4E063C3F5E0631B0AC3F10405AC40E6
:1007100085780F2626FA03F32B4023430D4C1B014B
:100720001355007800F01F0291400B4A400942F82F
:10073000201070BC704703F01F0001FA00F0074959
:10074000520941F8220070BC704700000000FA0511
:100750000CED00E000E400E000E100E080E100E0FA
:1007600030B5044685B00D46208A4CF6FF7108402E
:10077000E988084320824EF6F311A0890840A98831
:1007800008432989084369890843A0814FF6FF413E
:10079000A08A0840A9890843A08200A8FFF7B0FDFD
:1007A000154884420CBF03980298296819225043C7
:1007B000A28912044CBF49008900B0FBF1F164200A
:1007C000B1FBF0F000010209642303FB1211A289BE
:1007D000120406D5C9003231B1FBF3F101F0070173
:1007E00005E009013231B1FBF3F101F00F010843DB
:1007F000208105B030BD000000380140002981890A
:1008000012BF41F400514DF6FF72114081817047D3
:100810000B065B0F4FF0010C01F01F010CFA01F108
:10082000012B08BF0C3003D0022B0CBF103014304A
:10083000002A026814BF114322EA010101607047D7
:100840008088C005C00D704723E030B40A46130607
:1008500000215B0F012402F01F0504FA05F5012BAE
:1008600008BF838903D0022B0CBF038A838A120A34
:10087000008804FA02F22B401040002B1CBF002815
:10088000012130BC084670470122090A02FA01F131
:1008900089B2C9430180704780B5012144F2050047
:1008A000FFF76BFD00F015F84FF4C060FFF71AFF7B
:1008B00025208DF8000000208DF801008DF8020041
:1008C00001208DF8030000A8FFF711FF00F021F8C8
:1008D00001BD10B582B04FF40070ADF800001820D3
:1008E0008DF8030003208DF8020000A9354C204646
:1008F000FFF756FD4FF48060ADF8000000A904201A
:100900008DF8030003208DF802002046FFF748FD14
:1009100013BD10B584B04FF4165000900020ADF810
:100920000C000C20ADF80A0000200190ADF8080082
:1009300000A9224C2046FFF713FF40212046FFF775
:1009400083FF01212046FFF759FF012240F2255184
:100950002046FFF75DFF04B010BD38B5174C40F2DC
:10096000255529462046FFF770FF00B32046FFF7C4
:1009700067FF13490A7AD2B9C0B2AA2808BF087023
:100980000DD0F92808BF487009D0DD2808BF88714C
:1009900005D0CA7952189070C879401CC871C879BE
:1009A000042804DB8879DD2804BFFF20087229466B
:1009B0002046BDE83440FFF767BF00000038014023
:1009C00024000020000801403548364A82B0016802
:1009D00041F001010160416811404160324A016803
:1009E00011400160016821F480210160416821F417
:1009F000FE0141604FF41F018160002101910091CF
:100A0000016841F480310160016801F40031009116
:100A10000199491C0191009919B90199B1F5A06F8B
:100A2000F2D10168490C01F00101009100990129FE
:100A300030D11E490A6842F010020A600A68920822
:100A400092000A600A6842F002020A60416841604E
:100A500041684160416841F480614160416821F42E
:100A60007C114160416841F4E8114160016841F046
:100A70008071016001688901FCD54168890889009D
:100A80004160416841F002014160416801F00C01A0
:100A90000829FAD14FF000600549086002B070479C
:100AA000001002400000FFF8FFFFF6FE00200240A9
:100AB00008ED00E038B501210120FFF75EFC0121BF
:100AC0001C48FFF7D7FCFFF77FFF00F037F800F076
:100AD00051F8FFF713FDFFF7DFFEFFF768FB16483D
:100AE00004210161C0460024A4F15000C0B2FFF708
:100AF0002DFB0025281100F00F001030C0B2FFF7C9
:100B000025FB05F00F00FFF721FB0020FFF712FB8C
:100B10006D1C802DEEDB641C082CE5DB002100221F
:100B20000846FFF781FB012200211046FFF77CFBFE
:100B3000F4E700BF00023000000C014009480A49F8
:100B40000A4A4160F0211170002181600721016093
:100B5000704700BF0648016811B10168491E016075
:100B60007047000010E000E03F19010023ED00E0B5
:100B70003000002080B501210C20FFF7FEFB4FF470
:100B80000440ADF8000000A910208DF803000320F8
:100B90008DF802000848FFF703FC4FF4C050ADF891
:100BA000000000A910208DF8030003208DF802003A
:100BB0000248FFF7F5FB01BD000C014000080140B1
:100BC00010B450F8041B81B102681218001D50F8CF
:100BD000043BDC0744BFA9F10104E31852F8044BBD
:100BE00043F8044B091FF9D1EBE710BC7047000034
:100BF00010B5074979441831064C7C44163404E09A
:100C00000A68081D511888470146A142F8D110BD55
:100C10000800000018000000A9FFFFFF34000000DA
:100C20004801000000000020000000000120C04634
:100C3000002801D0FFF7DCFF0020C046C046FFF7C8
:100C400039FF00F000F800F001B800000746384610
:100C500000F002F8FBE7000080B5C046C046024A3B
:100C600011001820ABBEFBE72600020001488047B8
:100C700001480047C90900088D0C00087047FEE7CD
:100C8000FEE7FEE7FEE7704770477047C046C04684
:100C9000C046C046FFF7CAFFFFF7F0BFFFF7EFBF40
:100CA000FFF7EEBFFFF7EDBFFFF7ECBFFFF7EBBFBE
:100CB000FFF7EABFFFF7E9BFFFF74BBFFFF7FEBF44
:100CC000FFF7FEBFFFF7FEBFFFF7FEBFFFF7FEBF58
:100CD000FFF7FEBFFFF7FEBFFFF7FEBFFFF7FEBF48
:100CE000FFF7FEBFFFF7FEBFFFF7FEBFFFF7FEBF38
:100CF000FFF7FEBFFFF7FEBFFFF7FEBFFFF7FEBF28
:100D0000FFF7FEBFFFF7FEBFFFF7FEBFFFF7FEBF17
:100D1000FFF7FEBFFFF7FEBFFFF7FEBFFFF7FEBF07
:100D2000FFF7FEBFFFF7FEBFFFF7FEBFFFF7FEBFF7
:100D3000FFF7FEBFFFF7FEBFFFF7FEBFFFF7FEBFE7
:100D4000FFF7FEBFFFF7FEBFFFF7FEBFFFF7FEBFD7
:100D5000FFF703BEFFF7FEBFFFF7FEBFFFF717BCAD
:100D6000FFF7FEBFFFF7FEBF000000000102030413
:100D70000102030406070809020406080000000037
:100D80000000000000000000000000000000000063
:0C0D900000000000000000000000000057
:0400000508000C8D56
:00000001FF
