:020000040800F2
:10000000481D0020E50D0008810300088303000857
:10001000870300088B0300088F030008000000001E
:100020000000000000000000000000009303000832
:1000300095030008000000009703000899030008DA
:1000400051080008FF0D0008FF0D0008FF0D000813
:10005000FF0D0008FF0D0008FF0D0008FF0D000850
:10006000FF0D0008FF0D0008FF0D0008FF0D000840
:10007000FF0D0008FF0D0008FF0D0008FF0D000830
:10008000FF0D0008FF0D0008FF0D0008FF0D000820
:10009000FF0D0008FF0D0008FF0D0008FF0D000810
:1000A000FF0D0008FF0D0008FF0D0008FF0D000800
:1000B000FF0D0008D7080008FF0D0008FF0D00081D
:1000C000FF0D0008FF0D0008FF0D0008FF0D0008E0
:1000D000FF0D00085B0D0008FF0D0008FF0D000874
:1000E0006B070008FF0D0008FF0D000800F002F884
:1000F00000F05AF80AA090E8000C82448344AAF168
:100100000107DA4501D100F04FF8AFF2090EBAE865
:100110000F0013F0010F18BFFB1A43F0010318473B
:1001200050290000702900000A444FF0000C10F81C
:10013000013B13F0070408BF10F8014B1D1108BF65
:1001400010F8015B641E05D010F8016B641E01F805
:10015000016BF9D113F0080F1EBF10F8014BAD1C55
:100160000C1B09D16D1E58BF01F801CBFAD505E073
:1001700014F8016B01F8016B6D1EF9D59142D6D3CD
:10018000704700000023002400250026103A28BFF5
:1001900078C1FBD8520728BF30C148BF0B607047F9
:1001A0001FB51FBD10B510BD02F033FC1146FFF79F
:1001B000F7FF00F009F802F051FC03B4FFF7F2FF7B
:1001C00003BC00F06FFD0000002700F056F9482046
:1001D00000F00CFD00F060FD4FF4165000F071FDD2
:1001E00000F0CCF900F0FCF900F0F4FB042300224D
:1001F0000121084600F0B9FCBBE000F002FA064617
:10020000002E76D0012E06D0022E4CD0032E71D0B7
:10021000042E47D18AE000F0C1FB00240AE001204F
:1002200000EBC400C1B202232246012000F09DFC75
:10023000601CC4B2102CF2DB00240DE0254605F151
:100240001000C2B2012000EBC500C1B2022303209E
:1002500000F08BFC601CC4B2102CEFDB00240DE01E
:10026000254605F12000C2B2012000EBC500C1B255
:100270000223052000F079FC601CC4B2102CEFDBD7
:1002800000240DE0254605F13000C2B2012000EB4C
:10029000C500C1B20223072000F067FC601CC4B295
:1002A000102CEFDB54E000F079FB00240BE0254636
:1002B000012000EB0510C1B203232A46012000F003
:1002C00054FC601CC4B2102CF1DB00240DE0254668
:1002D00005F10800C2B2012000EB0510C1B20323F2
:1002E000184600F042FC601CC4B2102CEFDB002466
:1002F00010E02EE011E0254605F11000C2B22C46B8
:10030000012000EB0410C1B20323072000F02DFCF4
:10031000601CC4B2102CEEDB1AE000F03FFB04239B
:1003200000220121084600F020FC11E0114800687D
:1003300008B9012000E000200E4908600E48D0F8FE
:10034000880108B9012000E000200C49086000BFC6
:1003500000BF781CC7B20C2F00D1002705480068E9
:1003600008B9012000E00020024908600A2000F0DE
:1003700057FC42E7A00121420080224288812242AC
:10038000704700BFFEE700BFFEE700BFFEE700BF0B
:10039000FEE7704770477047704700000CB50020BB
:1003A000019000906C48006840F480306A49086011
:1003B00000BF6948006800F4003000900198401CBC
:1003C0000190009818B90198B0F5A06FF1D162487A
:1003D000006800F4003010B10120009001E000201E
:1003E00000900098012843D15C48006840F010005C
:1003F0005A4908600846006820F003000860084673
:10040000006840F002000860534840685249486064
:100410000846406848600846406840F4806048608C
:100420000846406820F47C1048600846406840F464
:10043000E81048600846006840F08070086000BF1F
:100440004548006800F000700028F9D04248406834
:1004500020F00300404948600846406840F0020030
:10046000486000BF3C48406800F00C000828F9D103
:100470000CBD10B5FFF792FF10BD10B536480068EF
:1004800040F001003449086008464068344908409B
:100490003149486008460068324908402E490860E2
:1004A0000846006820F4802008600846406820F470
:1004B000FE0048604FF41F008860FFF7DAFF4FF03E
:1004C00000602949086010BD10B5002100200022FD
:1004D000214B5B6803F00C0121B1042906D00829E7
:1004E00028D107E0214B224C236027E01F4B204CF2
:1004F000236023E0184B5B6803F47010164B5B68B5
:1005000003F48032022303EB904022B9194B43439A
:10051000174C23600DE0104B5B6803F4003323B1EC
:10052000144B4343124C236003E0104B4343104CE5
:10053000236003E00D4B0E4C236000BF00BF064B51
:100540005B68C3F303130C4CE15C094B1B68CB40A5
:10055000074C236010BD0000001002400020024044
:100560000000FFF8FFFFF6FE08ED00E000127A0041
:100570000000002000093D000400002008B5012112
:10058000042001F087F84FF48070ADF800001020CF
:100590008DF8030003208DF8020069460E4800F034
:1005A0009DFD4FF480710C4800F045FE0121202094
:1005B00001F070F80420ADF8000010208DF8030061
:1005C00003208DF802006946044800F087FD0421ED
:1005D000024800F030FE08BD000801400014014050
:1005E00008B50121102001F055F841F63000ADF8B2
:1005F000000048208DF803006946324800F06EFD87
:1006000008BD10B50121304800F039FE2F480078B0
:1006100000283BD02E48006858B12D48001F0068C4
:1006200038B12B481830006818B129481C300068D0
:1006300060BB0A2000F0F4FA002024490870244826
:10064000006828B90121234800F019FE012010BDDF
:100650001F48001F006828B901211E4800F00FFE46
:100660000220F4E71A481830006828B90121194817
:1006700000F005FE0320EAE715481C300068D0B9F9
:100680000121144800F0FBFD0420E0E71048006859
:10069000012810D10E48001F006801280BD10C481A
:1006A00018300068012806D109481C30006801286C
:1006B00001D1064908700121064800F0E0FD002044
:1006C000C5E70000001001400004300014000020C5
:1006D00014012242000230001FB50121374800F00A
:1006E000CEFD0121112000F0D5FF41F63000ADF81C
:1006F0000C0048208DF80F0003A9314800F0EEFCF3
:100700000B21022000F000FE4FF400600190002059
:100710008DF808000C208DF8090001208DF80A00E2
:1007200001A800F0FBFB0C21022000F0EDFD4FF4CE
:100730008050019000208DF808000C208DF80900F1
:1007400001208DF80A0001A800F0E8FB28208DF8B0
:10075000000002208DF8010001208DF802008DF8C4
:100760000300684600F063FB1FBD10B50A2000F0CF
:1007700057FA4FF4006000F037FC40B111480068B0
:1007800008B9012000E000200E4908600CE04FF499
:10079000805000F029FC38B10B48006808B90120EE
:1007A00000E00020084908604FF4006000F02DFCD4
:1007B0004FF4805000F029FC10BD00000002300012
:1007C00000100140A00121428881224270B50546F7
:1007D0000C4645F2555000F0CFFD284600F0CFFD05
:1007E000204600F0CFFD00F0D0FD00F0D3FD70BD3D
:1007F00010B500F0CAFD10BD08B500208DF800004E
:1008000002208DF8010003208DF80200684600F0F8
:100810000EFB08BD70B506460C4615460121C80200
:1008200000F045FF284602F0B6F8204602F0BCF87A
:10083000304602F0D4F802F0DDF8FFF7DDFF02F0F9
:10084000C4F870BD10B50446204602F0C8F810BDCB
:1008500010B57F2002F0BDF802F0CCF80448006823
:1008600008B9012000E000200149086010BD000027
:10087000888122427FB504460D460121022000F006
:1008800016FF41F28830ADF8080041F61F40ADF880
:1008900004000020ADF80A00ADF8060001A91748D1
:1008A00001F030F801224121144801F0A2FB1D2083
:1008B0008DF8000000208DF8010003208DF8020063
:1008C00001208DF80300684600F0B1FA01210B48C1
:1008D00001F074FB7FBD10B50121084801F037FE1F
:1008E00058B10121054801F043FE0548006808B9E8
:1008F000012000E000200249086010BD0004004013
:10090000888122422DE9F04104462646002517E061
:100910004021B04800F091FC06F0800727B180210B
:10092000AC4800F088FC03E08021AA4800F085FC78
:100930004021A84800F07FFC7006060E681CC5B276
:10094000082DE5DBBDE8F08110B504464FF40071D9
:10095000A04800F072FC4FF480719E4800F06DFCDE
:100960002046FFF7CFFF4FF400719A4800F063FC78
:1009700010BD10B504464FF40071964800F05DFCC0
:100980004FF48071934800F056FC2046FFF7BAFF01
:100990004FF400718F4800F04EFC10BD70B500247C
:1009A00015E004F1B001C8B2FFF7CEFF1020FFF749
:1009B000CBFF0020FFF7C8FF002504E00020FFF771
:1009C000D8FF681CC5B2842DF8DB601CC4B2092CAA
:1009D000E7DB70BD08B50121112000F05BFE0121AD
:1009E0007D4800F04CFC4FF4F860ADF8000010209A
:1009F0008DF8030003208DF802006946754800F069
:100A00006DFB4FF47071734800F015FC4FF480617A
:100A1000704800F012FCE220FFF796FF012000F082
:100A2000FFF8A020FFF790FFC820FFF78DFFA2205E
:100A3000FFF78AFF2F20FFF787FF2520FFF784FFAE
:100A40008120FFF781FF1920FFF77EFF4020FFF78D
:100A50007BFFAF20FFF778FFFFF7A0FF08BD70B561
:100A600005460C46601E84B205F1AF01C8B2FFF71F
:100A70006BFFC4F3031101F11000FFF765FF04F0F1
:100A80000F00FFF761FF70BD70B5044600250FE051
:100A90000121681CFFF7E3FF002605E02078FFF73F
:100AA00068FF641C701CC6B2802EF7DB681CC5B2E0
:100AB000082DEDDB70BD2DE9F04106468846144651
:100AC00000250FE070194146FFF7C9FF002705E038
:100AD0002078FFF74EFF641C781CC7B2102FF7DB9D
:100AE000681CC5B2022DEDDBBDE8F0812DE9F041B7
:100AF00006468846144600250FE070194146FFF768
:100B0000AEFF002705E02078FFF733FF641C781C58
:100B1000C7B2082FF7DB681CC5B2022DEDDBBDE8BC
:100B2000F0812DE9F04106460F461446394630461D
:100B3000FFF795FF002505E02078FFF71AFF641CFA
:100B4000681CC5B2052DF7DBBDE8F08110B50121A9
:100B50000220FFF784FF002404E00820FFF709FFCC
:100B6000601CC4B2802CF8DB10BD2DE9F0410746B3
:100B7000884615461E46062E28D2DFE806F02703D3
:100B80000D161F2405EB85001449441822464146E2
:100B90003846FFF7C6FF1AE0114800EB051422465D
:100BA00041463846FFF7A2FF11E00E4800EB45141E
:100BB000224641463846FFF77EFF08E00A4C2046B1
:100BC000FFF762FF03E0FFF7C1FF00E000BF00BFD7
:100BD000BDE8F08100100140000230001500002047
:100BE000F5010020850F00208512002010B5044675
:100BF0006FF0040000F065F9E11704EB5171C1F3E7
:100C0000C701234A11701046007800EB4001C1EB88
:100C1000C0104FF6FF7101EAC0001E49088010BDE8
:100C200001461C4A12884A434FF0E0235A610022D1
:100C30009A6101221A6100BF4FF0E022106900F0B2
:100C400001021AB100F48032002AF5D000224FF0E0
:100C5000E0231A619A61704701460D4A12784A43AF
:100C60004FF0E0235A6100229A6101221A6100BF0D
:100C70004FF0E022106900F001021AB100F4803256
:100C8000002AF5D000224FF0E0231A619A617047E4
:100C9000861600208816002010B54FF4A06000F0E2
:100CA000C1F810BD014600BF704700BF494A128815
:100CB00002F04002002AF9D0C2B2464B1B1D1A8036
:100CC000704710B586B00446012144F2050000F0DB
:100CD000E1FC4FF40070ADF8140003208DF816000D
:100CE00018208DF8170005A93B4800F0F7F94FF4DC
:100CF0008060ADF8140004208DF8170005A936486F
:100D000000F0ECF925208DF8000003208DF801009B
:100D10008DF8020001208DF80300684600F087F886
:100D200001940020ADF80800ADF80A00ADF80C0001
:100D3000ADF810000C20ADF80E0001A9254801F017
:100D40005EFC012240F22551224801F0F0FC012115
:100D5000204801F0E0FC06B010BD10B540F225516E
:100D60001C4801F0C9FD10B31A4801F045FDC4B29A
:100D70001A48007800F08000C8B91848007800F0E0
:100D8000400060B10A2C03D000201449087020E014
:100D90001248007840F080001049087019E00D2CCE
:100DA00006D10E48007840F040000C49087010E071
:100DB0000A48007800F03F0009490C5407480078C1
:100DC000401C06490870084600783F2801DD0020D5
:100DD000087010BD00380140000801409016002046
:100DE000A81600200948804709480047FEE7FEE7AB
:100DF000FEE7FEE7FEE7FEE7FEE7FEE7FEE7FEE7CB
:100E000004480549054A064B704700007B0400086A
:100E1000ED00000848170020481D00204819002058
:100E20004819002031490143314A1160704770B5BB
:100E3000002100230F22C47804B32D4C246804F44D
:100E4000E064C4F5E064210AC1F10403CA404478B7
:100E500004FA03F18478144021430901254C0678F3
:100E6000A155047804F01F050124AC4005786D11EC
:100E7000AD0005F1E025C5F8004109E0047804F073
:100E80001F050124AC401C4D0678761145F826401C
:100E900070BD1A4A0A400243154B1B1F1A60704767
:100EA00039B1134A121D12680243114B1B1D1A60FF
:100EB00006E00F4A121D126882430D4B1B1D1A607B
:100EC0007047042808D14FF0E021096941F004017E
:100ED0004FF0E022116107E04FF0E021096921F0B5
:100EE00004014FF0E0221161704700000000FA0594
:100EF0000CED00E000E400E080E100E080FFFF1F77
:100F0000002044490860091D0860091D0860091D8A
:100F1000086041483F4914310860704700213D494D
:100F20008279002A3AD00A46126803689A430B462F
:100F30001A600A1D126803689A430B1D1A60027931
:100F400011440A6803681A430A60324A0832126878
:100F500003689A432F4B08331A601A1D12680368FE
:100F60009A432C4B0C331A604279102A0ED11A1F67
:100F7000126803681A43274B08331A601A1D126857
:100F800003681A43234B0C331A600DE02149427960
:100F900011440A6803681A430A6005E002791144A3
:100FA0000A6803689A430A60704700210160017172
:100FB0000C21417100218171704716491031096877
:100FC0000143144A10321160704701460020114A53
:100FD000143212680A400AB1012000E00020704774
:100FE0000C49143108607047014600200022094B6B
:100FF0001B6803EA0102074B14331B680B4013B153
:101000000AB1012000E00020704702491431086055
:101010007047000000040140FFFF0F0010B50446B8
:10102000CC48844208D10121042000F04DFB00216E
:10103000042000F049FB46E0C748844208D1012162
:10104000082000F041FB0021082000F03DFB3AE0C1
:10105000C248844208D10121102000F035FB002154
:10106000102000F031FB2EE0BD48844208D1012160
:10107000202000F029FB0021202000F025FB22E0A9
:10108000B848844208D10121402000F01DFB002116
:10109000402000F019FB16E0B348844208D101213A
:1010A000802000F011FB0021802000F00DFB0AE001
:1010B000AE48844207D10121801500F005FB0021D4
:1010C000A01500F001FB10BD10B50121084600F08D
:1010D000FBFA0021012000F0F7FA10BD2DE9F041E4
:1010E000024600250026002000230024002791F856
:1010F00003C00CF00F0591F803C00CF0100CBCF10C
:10110000000F03D091F802C04CEA050591F800C029
:10111000BCF1000F31D0146800202BE04FF0010C1F
:101120000CFA00F3B1F800C00CEA03069E4220D18D
:1011300083004FF00F0C0CFA03F7BC4305FA03FCD5
:101140004CEA040491F803C0BCF1280F06D14FF01B
:10115000010C0CFA00FCC2F814C00AE091F803C0BC
:10116000BCF1480F05D14FF0010C0CFA00FCC2F89D
:1011700010C0401C0828D1D31460B1F800C0BCF1E5
:10118000FF0F34DD546800202EE000F1080C4FF012
:10119000010808FA0CF3B1F800C00CEA03069E42FD
:1011A00021D183004FF00F0C0CFA03F7BC4305FA72
:1011B00003FC4CEA040491F803C0BCF1280F05D1EC
:1011C00000F1080C08FA0CF8C2F8148091F803C07A
:1011D000BCF1480F07D100F1080C4FF0010808FAE4
:1011E0000CF8C2F81080401C0828CED35460BDE82B
:1011F000F0814FF6FF710180022181700421C170DE
:1012000070470246002093680B400BB1012000E0BC
:10121000002070470146886880B27047024600206F
:10122000D3680B400BB1012000E00020704701465D
:10123000C86880B2704701617047416170470AB168
:10124000016100E041617047C16070474FF4803236
:101250000A438261816182618269826970470246C4
:101260000020434B18684FF68073184040EA021084
:1012700008433F4B186070473E49C8617047F0B55E
:101280000A46002300240021002500F00046B6F1A4
:10129000004F02D1364EF16901E0354E7168C0F35E
:1012A000034583B200F44016B6F5401F08D121F083
:1012B00070612F4E766826F070662D4F7E6012E0CA
:1012C00000F48016B6F5801F06D1032606FA05F451
:1012D000A14341F0706106E0460D360103FA06F6BF
:1012E000B14341F0706122B1460D360103FA06F6B2
:1012F000314300F00046B6F1004F02D11C4EF161BF
:1013000001E01B4E7160F0BD30B500228B071C0F51
:101310000F2303FA04F2164B08338C1053F82430D1
:101320009343134C08348D1044F8253023468C1019
:1013300053F824308C07240F00FA04F423430C4C98
:1013400008348D1044F8253030BD0A49DC3108607E
:101350007047000000080140000C014000100140EF
:101360000014014000180140001C01400020014011
:1013700000000140000020420E49086070470D49FE
:10138000486070470B49886070474AF6AA200949AF
:10139000086070474CF6CC4006490860704701462B
:1013A0000020044AD2680A400AB1012000E000206F
:1013B0007047000000300040DF48006840F0010046
:1013C000DD49086008464068DC490840DA49486061
:1013D00008460068DA490840D749086008460068AE
:1013E00020F4802008600846406820F4FE00486031
:1013F0004FF41F0088607047CF49096821F480319D
:10140000CD4A11601146096821F480211160B0F5C0
:10141000803F03D0B0F5802F0ED106E0C6490968A1
:1014200041F48031C44A116007E0C349096841F4BE
:10143000A021C14A116000E000BF00BF704710B595
:1014400001460022002300204A11012A02D1BA4C91
:10145000236806E0022A02D1B74C236A01E0B64CA9
:10146000636A01F01F02012494401C400CB101206A
:1014700000E0002010BD38B50020009000240025B9
:1014800000BF3120FFF7DBFF05460098401C0090AD
:101490000098B0F5A06F01D0002DF2D03120FFF7F9
:1014A000CEFF08B1012400E00024204638BD0146EB
:1014B0000020A14A106820F0F80040EAC100106046
:1014C0007047A04908607047024600209A4B586850
:1014D00020F47C1042EA01031843974B5860704790
:1014E00098490866704701460020934A506820F0EA
:1014F00003000843506070478F48406800F00C00BC
:101500007047014600208C4A506820F0F0000843E4
:101510005060704701460020874A506820F4E06020
:1015200008435060704701460020834A506820F409
:10153000605040EAC1005060704729B17E4A527A3B
:1015400002437D4B5A7204E07B4A527A82437A4BC3
:101550005A7270477B49D8310860704701460020B5
:10156000754A506820F4404008435060704700219D
:10157000714A20321170704A82F82010012802D07E
:1015800004280AD104E001216B4A2032117005E0E1
:101590000521694A2032117000E000BF00BF70478A
:1015A0006949086070476449096A0143624A1162E7
:1015B0007047654944390860704730B50021002202
:1015C000002400235C4D6D6805F00C0121B1042955
:1015D00005D0082923D105E05C4D056022E05B4D74
:1015E00005601FE0544D6D6805F47012524D6D6832
:1015F00005F48034022505EB92421CB9544D554345
:1016000005600BE04C4D6D6805F400351DB1504D83
:101610005543056002E04D4D5543056002E04B4DDA
:10162000056000BF00BF444D6D6805F0F001090979
:10163000484D6B5C0568DD4045603F4D6D6805F4C5
:10164000E061090A434D6B5C4568DD4085603A4DB9
:101650006D6805F46051C90A3E4D6B5C4568DD401C
:10166000C560354D6D6805F44041890B3A4D6B5CA2
:10167000C568B5FBF3F5056130BD29B12E4A526945
:1016800002432D4B5A6104E02B4A526982432A4B94
:101690005A61704729B1284A92690243264B9A61E0
:1016A00004E0254A92698243234B9A61704729B12D
:1016B000214AD2690243204BDA6104E01E4AD26912
:1016C00082431D4BDA61704729B11B4AD26802433D
:1016D000194BDA6004E0184AD2688243164BDA608C
:1016E000704729B1144A12690243134B1A6104E08E
:1016F000114A12698243104B1A61704712494039EE
:10170000086070470F49C86470470B49C87170473B
:101710000948406A40F080700749486270470146B6
:101720000020054A92680A400AB1012000E000202A
:101730007047014988727047001002400000FFF8AE
:10174000FFFFF6FE000042428004424200127A008F
:1017500000093D0091160020A116002010B5044696
:10176000FE48844208D10121C014FFF7ADFF0021DB
:10177000E014FFF7A9FFC4E0B4F1804F08D10121C4
:101780000846FFF7AEFF00210120FFF7AAFFB8E0EF
:10179000F348844208D101210220FFF7A2FF002173
:1017A0000220FFF79EFFACE0EE48844208D1012101
:1017B0000420FFF796FF00210420FFF792FFA0E02E
:1017C000E948844208D101210820FFF78AFF00215F
:1017D0000820FFF786FF94E0E448844208D1012105
:1017E0001020FFF77EFF00211020FFF77AFF88E02E
:1017F000DF48844208D101212020FFF772FF002139
:101800002020FFF76EFF7CE0DA48844208D10121F6
:101810004014FFF759FF00216014FFF755FF70E0F7
:10182000D548844209D10121C804FFF74DFF0021AA
:101830004FF40020FFF748FF63E0D048844209D10D
:1018400001210805FFF740FF00214FF48010FFF74A
:101850003BFF56E0CA48844209D101214805FFF701
:1018600033FF00214FF40010FFF72EFF49E0C54879
:10187000844208D101214020FFF733FF002140209E
:10188000FFF72FFF3DE0C048844208D101218020AE
:10189000FFF727FF00218020FFF723FF31E0BB483F
:1018A000844208D101218015FFF71BFF0021A015FC
:1018B000FFF717FF25E0B648844209D1012108044B
:1018C000FFF702FF00214FF48030FFF7FDFE18E024
:1018D000B048844209D101214804FFF7F5FE0021F8
:1018E0004FF40030FFF7F0FE0BE0AB48844208D124
:1018F00001218804FFF7E8FE00214FF48020FFF764
:10190000E3FE10BD00220288944B98420ED0994B02
:1019100098420BD0B0F1804F08D0914B984205D03F
:10192000904B984202D0904B984204D14FF68F735F
:101930001A404B881A438D4B984207D08C4B9842E3
:1019400004D04FF6FF431A40CB881A4302808B889D
:1019500083850B880385814B98420BD0854B984239
:1019600008D08B4B984205D08A4B984202D08A4BC4
:10197000984201D10B7A038601238382704770B5A8
:10198000002400220023058C4FF6FE7635400584A6
:10199000028C8388048B4FF68F752C40B51E2C402B
:1019A0000D882C43751E2A400D892A434D882A43F1
:1019B0006A4DA8420BD06F4DA84208D0744DA84282
:1019C00005D0744DA84202D0734DA84213D14FF6F2
:1019D000F7752A404D892A434FF6FB752A408D88BA
:1019E0002A434FF6FF652B404FF6FF552B408D895C
:1019F0002B43CD892B4383800483CD888586028445
:101A000070BD70B5002400220023058C4FF6EF76E0
:101A100035400584028C8388048B48F6FF752C4082
:101A20004FF6FF452C400D884FF6FF7606EA052558
:101A30002C434FF6DF752A400D8906EA05152A4327
:101A40004D8806EA05152A43444DA84202D0494D67
:101A5000A8421DD14FF67F752A404D894FF6FF767B
:101A600006EA05152A434FF6BF752A408D8806EA17
:101A700005152A434FF6FF352B404FF2FF752B40DB
:101A80008D8906EA85052B43CD8906EA85052B431A
:101A900083800483CD880587028470BD70B50024DF
:101AA00000220023058C4FF6FF6635400584028C2A
:101AB0008388848B4FF68F752C404FF6FC752C4035
:101AC0000D882C434FF6FF552A400D894FF6FF76BF
:101AD00006EA05252A434D8806EA05252A431F4DB7
:101AE000A84202D0234DA8421DD14FF2FF752A40D3
:101AF0004D894FF6FF7606EA05252A434FF6FF3556
:101B00002A408D8806EA05252A434EF6FF752B40AC
:101B10004DF6FF752B408D8906EA05152B43CD89BF
:101B200006EA05152B4383808483CD88858702844C
:101B300070BD70B5002200230024058C4EF6FF76A0
:101B400035400584038C8488828B48F6FF752A40D3
:101B50004FF6FF452A400D8820E00000002C014090
:101B60000004004000080040000C0040001000404D
:101B70000014004000340140004C0140005001407E
:101B80000054014000180040001C004000200040AC
:101B90000040014000440140004801404FF6FF76FC
:101BA00006EA05252A434DF6FF752B400D8906EA06
:101BB00005352B434D8806EA05352B43FA4DA842DF
:101BC00002D0FA4DA84208D14BF6FF752C408D8902
:101BD0004FF6FF7606EA85152C4384808283CD88F4
:101BE000A0F84050038470BD828B4FF2FF331A403F
:101BF0008283828B4FF6FF7303EA01231A438283A9
:101C00007047F0B50C461546002200210026078CCF
:101C10004EF6FF7C07EA0C070784828B018C4FF697
:101C2000FF7707EA043640F6FF473A404FF6FF7762
:101C300007EA05273A434FF6FF7707EA03373A43A7
:101C4000D94FB8420ED0D94FB8420BD0B0F1804F27
:101C500008D0D74FB84205D0D64FB84202D0D64FA1
:101C6000B84206D14DF6FF77394046F480573943E4
:101C700005E047F6FF57394044F4805739438283E3
:101C80000184F0BD828B4FF6F3731A408283828BFE
:101C90000A4382837047F0B50C46154600220021A6
:101CA0000026078C4FF6FF6C07EA0C070784828B2F
:101CB000018C4FF6FF7707EA04264FF60C773A407F
:101CC0004FF6FF7707EA03172F433A43B64FB84260
:101CD0000ED0B64FB8420BD0B0F1804F08D0B44F01
:101CE000B84205D0B34FB84202D0B34FB84206D184
:101CF0004FF6FF57394046F48077394305E04FF2FD
:101D0000FF57394044F48077394382830184F0BD22
:101D1000028B4FF2FF331A400283028B4FF6FF73A0
:101D200003EA01231A4302837047F0B50C461546B7
:101D3000002200210026078C4FF6EF7C07EA0C07F3
:101D40000784028B018C4FF6FF7707EA041640F6F2
:101D5000FF473A404FF6FF7707EA03373A434FF61B
:101D6000FF7707EA05273A438F4FB8420ED08F4FCF
:101D7000B8420BD0B0F1804F08D08D4FB84205D09B
:101D80008C4FB84202D08C4FB84206D14FF6DF7765
:101D9000394046F01007394305E04FF65F77394088
:101DA00044F01007394302830184F0BD028B4FF6E3
:101DB000F3731A400283028B0A4302837047F0B523
:101DC0000C46154600220021068C4FF6FE773E4059
:101DD0000684028B018C4FF60C7632407E1C06EA9C
:101DE00003162E433243704EB0420ED06F4EB042B7
:101DF0000BD0B0F1804F08D06D4EB04205D06D4E83
:101E0000B04202D06C4EB04206D14FF6FD76314062
:101E100044F00106314305E04FF6F576314044F0D9
:101E20000106314302830184F0BD70B505460C46BE
:101E30005D4885420ED05D4885420BD0B5F1804F9C
:101E400008D05B48854205D05A48854202D05A489E
:101E5000854200D100E000BF208850B92389A288C4
:101E600061882846FFF7ABFFE1882846FFF79EFF11
:101E700025E0208804280AD12389A2886188284681
:101E8000FFF753FFE1882846FFF742FF17E020885D
:101E900008280AD12389A28861882846FFF7FBFE1B
:101EA000E1882846FFF7EEFE09E02389A2886188D1
:101EB0002846FFF7A6FEE1882846FFF795FE70BD8D
:101EC0002DE9F04105460C4600260127608808B937
:101ED000022600E00026A088012801D1022700E0A8
:101EE00001272088A0B92389A28861882846FFF7A6
:101EF00066FFE1882846FFF759FF23893A463146B5
:101F00002846FFF712FFE1882846FFF701FF13E09C
:101F10002389A28861882846FFF707FFE1882846C1
:101F2000FFF7F6FE23893A4631462846FFF747FF7A
:101F3000E1882846FFF73AFFBDE8F0810A884B8820
:101F40001A438B881A43CB881A430B891A434B894F
:101F50001A438B891A43A0F8442070474FF6FF714B
:101F6000818000210180C180418001727047002181
:101F7000018041808180C180018141818181C18155
:101F80007047002101804180012181800021C180B2
:101F9000018170470021018041808180C1800181E1
:101FA0004181818170470000002C014000340140D4
:101FB0000004004000080040000C004021B10288ED
:101FC00042F00102028004E002884FF6FE731A40DC
:101FD0000280704731B1B0F8442042F40042A0F8CA
:101FE000442005E0B0F84420C2F30E02A0F84420DB
:101FF00070471AB183890B43838102E083898B4345
:10200000838170478182704741EA0203A0F848301B
:1020100070471AB183890B43838102E083898B4324
:102020008381704701894FF6F87211400181704732
:102030000A46002101894FF68F731940114301812F
:10204000704730B504460D4629462046FFF7F0FF9D
:10205000208940F00700208130BD2DE9F041044681
:102060000D4616461F46602D06D13B4601223146DD
:102070002046FFF75AFE05E03B4601223146204646
:10208000FFF79DFE29462046FFF7D2FF208940F04A
:1020900007002081BDE8F08130B50C4600210189A0
:1020A000C9B24FF6FF7505EA0325154325432943B9
:1020B000018130BD2DE9F04105460E461746984690
:1020C000002443463A4631462846FFF7E5FF2C896F
:1020D0004FF6F870044044F007044FF68F70044048
:1020E00044F070042C81BDE8F081F0B504460D4643
:1020F00016461F463B46324629462046FFF7CCFF90
:10210000208940F480402081F0BD018582827047A3
:102110000A46002101884FF68F7319401143018050
:102120007047F0B50C4615461E46002100220023DC
:102130000189028B038C4FF6F877394021434FF623
:10214000FC473A4040F201173A434FF6DD773B40F7
:102150004FF6FF7707EA06172F433B4301810283BF
:102160000384F0BD0A460021018B4FF68F7319409E
:102170001143018370470A460021018B48F6FF7323
:1021800019404FF6FF7303EA022319430183704796
:102190000A460021818B4FF68F73194011438183CA
:1021A00070470A460021818B48F6FF7319404FF6AD
:1021B000FF7303EA022319438183704721B1028828
:1021C00042F08002028004E002884FF67F731A40DA
:1021D0000280704721B1828842F00402828004E0CC
:1021E00082884FF6FB731A408280704721B1828843
:1021F00042F00802828004E082884FF6F7731A40AA
:102200008280704721B1828842F00102828004E01E
:1022100082884FF6FE731A40828070470A4600217A
:10222000018B4FF6F77319401143018370470A463B
:102230000021018B4FF2FF7319404FF6FF7303EA41
:1022400002231943018370470A460021818B4FF610
:10225000F77319401143818370470A460021818B2F
:102260004FF2FF7319404FF6FF7303EA022319433D
:10227000818370470A460021018B4FF6FB7319409A
:102280001143018370470A460021018B4FF6FF334B
:1022900019404FF6FF7303EA022319430183704785
:1022A0000A460021818B4FF6FB731940114381834D
:1022B00070470A460021818B4FF6FF3319404FF6D5
:1022C000FF7303EA02231943818370470A46002102
:1022D000018B4FF67F7319401143018370470A4603
:1022E0000021018BC1F30E014FF6FF7303EA0223B5
:1022F0001943018370470A460021818B4FF67F7393
:1023000019401143818370470A460021818BC1F334
:102310000E014FF6FF7303EA0223194381837047CE
:102320000A460021018C4FF6FD73194011430184C8
:1023300070470A460021018C4FF6F773194011438C
:10234000018470470A460021018C4FF6DF73194063
:102350004FF6FF7303EA02131943018470470A46DC
:102360000021018C4FF67F7319404FF6FF7303EA8B
:1023700002131943018470470A460021018C4FF66D
:10238000FF5319404FF6FF7303EA022319430184F8
:1023900070470A460021018C4FF2FF7319404FF637
:1023A000FF7303EA02231943018470470A460021A0
:1023B000018C4DF6FF7319404FF6FF7303EA0233A9
:1023C00019430184704730B5002301248C40A3B227
:1023D000048C9C430484048C02FA01F5ADB22C43B6
:1023E000048430BD30B5002304248C40A3B2048C97
:1023F0009C430484048C02FA01F5ADB22C4304849E
:1024000030BD70B503460020002418461830012561
:102410008D40ACB21D8CA5431D8409B1082909D19A
:1024200000EB6100056825F070050560056815433F
:1024300005600EE00D1FC5F34E052844056825F420
:10244000E045056005684FF6FF7606EA022635434B
:10245000056070BD21B1028842F00202028004E0F2
:1024600002884FF6FD731A400280704721B102883E
:1024700042F00402028004E002884FF6FB731A4027
:102480000280704721B1828842F08002828004E09D
:1024900082884FF67F731A408280704702884FF619
:1024A000F7731A40028002880A43028070478288CC
:1024B0004FF68F731A40828082880A438280704769
:1024C00002894FF6F8731A40028102890A43028199
:1024D000704702894FF67F731A40028102890A43CE
:1024E000028170478184704781857047818670477B
:1024F0000187704781877047A0F8401070470288B5
:102500004FF6FF431A40028002880A430280704758
:102510000146888E70470146088F70470146888FB4
:1025200070470146B1F8400070470146888C7047FB
:102530000146088D704702460020138A0B400BB1FC
:10254000012000E000207047CA430282704730B586
:102550000246002000230024158A05EA010395891C
:1025600005EA010413B10CB1012000E0002030BDE8
:10257000CA4302827047000010B50446FB488442FB
:1025800009D101218803FFF79FF800214FF4804013
:10259000FFF79AF832E0F648844209D10121480455
:1025A000FFF79FF800214FF40030FFF79AF825E07D
:1025B000F048844209D101218804FFF792F80021F4
:1025C0004FF48020FFF78DF818E0EB48844209D1E2
:1025D0000121C804FFF785F800214FF40020FFF720
:1025E00080F80BE0E548844208D101210805FFF797
:1025F00078F800214FF48010FFF773F810BD2DE933
:10260000F04786B005460E460024A24600BFA1460C
:102610000027B08900B100BF2F462C8A4CF6FF700E
:102620000440F08804432C82AC894EF6F310044039
:10263000B08831890843718908430443AC81AC8A6E
:102640004FF6FF400440B0890443AC8201A8FEF776
:10265000B4FFC648874202D1DDF810A001E0DDF8E2
:102660000CA0A88900F4004040B10AEBCA0000EBBE
:102670000A1031684900B0FBF1F807E00AEBCA0024
:1026800000EB0A1031688900B0FBF1F86420B8FB58
:10269000F0F004012009642101FB1089A88900F4ED
:1026A000004040B1322000EBC900B0FBF1F000F077
:1026B0000700044308E0322000EB09106421B0FB5E
:1026C000F1F000F00F0004432C8106B0BDE8F08764
:1026D0004FF41651016000218180C18001810C21DD
:1026E000418100218181704710B502460020108A87
:1026F0004FF2FF0318400B884C8823438C882343F8
:10270000CC8823431843108210BD002101804180F2
:102710008180C180704721B1828942F40052828158
:1027200004E082894DF6FF731A4082817047F0B54C
:102730000346002400260025002040F66A17B9420F
:1027400000D100BF1846C1F3421401F01F06012753
:1027500007FA06F5012C01D10C3004E0022C01D15E
:10276000103000E014301AB107682F43076002E010
:102770000768AF430760F0BD1AB1838A0B438382B9
:1027800002E0838A8B4383827047028A4FF6F0739C
:102790001A400282028A0A430282704782894FF2FB
:1027A000FF731A40828182890A438281704721B176
:1027B000828942F00202828104E082894FF6FD7331
:1027C0001A4082817047028A4FF6DF731A400282F4
:1027D000028A0A430282704721B1028A42F480428F
:1027E000028204E0028A4BF6FF731A4002827047AD
:1027F000C1F308028280704701468888C0F3080050
:102800007047818941F0010181817047028BD2B20A
:102810000283028B42EA012202837047028B02F498
:102820007F420283028B0A430283704721B1828A6E
:1028300042F02002828204E0828A4FF6DF731A405F
:102840008282704721B1828A42F01002828204E0C3
:10285000828A4FF6EF731A408282704721B1828AD2
:1028600042F00802828204E0828A4FF6F7731A402F
:102870008282704721B1828942F40042828103E062
:102880008289C2F30E028281704721B1828A42F4AA
:102890000062828204E0828A4FF2FF731A408282D1
:1028A0007047828A4FF6FB731A408282828A0A43FB
:1028B0008282704721B1828A42F00202828204E061
:1028C000828A4FF6FD731A408282704702460020CA
:1028D000B1F5007F00D100BF13880B400BB1012080
:1028E00000E00020704701F40072B2F5007F00D1D3
:1028F00000BFCA430280704770B50246002400231F
:102900000025002040F66A16B14200D100BFC1F395
:10291000421501F01F03012606FA03F3012D02D12F
:102920009689334006E0022D02D1168A334001E039
:10293000968A33400C12012606FA04F416883440B5
:1029400013B10CB1012000E0002070BD10B50022D1
:10295000002340F66A14A14200D100BF0A120124EC
:102960009440A3B2DC43048010BD00000038014055
:102970000044004000480040004C0040005000402F
:1029800010B50121C802FEF7ACFE00214FF4006033
:10299000FEF7A7FE10BD0021194A126822F4C0718B
:1029A0000143174A1160704708B50021009114498E
:1029B000096821F07F01009100F07F01009A114326
:1029C00000910F4A0099116008BD01200D4908606F
:1029D000704700F07F010A4A121F1160704740F0F3
:1029E0008001074A121F116070470548001D0068EA
:1029F000C0B2704700200249091D086070470000FE
:102A0000042C0040A480054270477047704770470F
:102A10007047754600F028F8AE46050069465346F3
:102A200020F00700854618B020B5FEF7E9F9BDE8AB
:102A300020404FF000064FF000074FF000084FF025
:102A4000000B21F00701AC46ACE8C009ACE8C009B6
:102A5000ACE8C009ACE8C0098D4670470446AFF346
:102A600000802046FDF7A9FB00487047E8160020CB
:102A7000902A000800000020A81600002801000885
:102A80006C360008A8160020A0060000840100088B
:102A90001184A24A04700A0102030406070809010E
:102AA000325F1A07021B147F021010242E7B2A1299
:102AB000231308646236495620501B040327241C44
:102AC00022411441221C1A2222200A2208087F08CF
:102AD000084030102A080111236060100B201008F4
:102AE00004023E5149453E14427F4010296251493B
:102AF00049462141494D331814127F102745454559
:102B0000393C4A4949310171090503364949493679
:102B1000464949291E2336362A40051B0814642AD3
:102B2000140119692813140802015905023E415D78
:102B3000555E7C1211127C7F321F3E414141227F43
:102B4000052A3E0F180C417F090909013E415151E8
:102B5000728F13087F14417F412F2040413F017F36
:102B60004C1B7F4001280B7F020C027F7F04081062
:102B70007F3C2A3E321A06321809215E7F09192944
:102B800046264618083201017F01013F2C18173FE5
:102B90001F2040201F7F2018207F63140814630328
:102BA0000478040361D21B437F74111A0246122079
:102BB0001B41414F1B027F0D1B1C2AFA11181301E8
:102BC000020424545438407F284444383844444450
:102BD00008052017287F3854545408087E09090234
:102BE00098A4A4A4787F08040478327914808879A2
:102BF0001E7F10284440AF12401A786429022B042B
:102C0000783C180838FC2424241818052AFC141BC6
:102C1000084846180D24043F4444243C40403C40AE
:102C20001CA01B1C3C091C3C442842400E9CA0A03C
:102C3000907C4464544C4408364142771D41360828
:102C400008AA1C08552A0201112780C0A0A0A06074
:102C50001E020F1A1212BF2172F062171A1C02B163
:102C60001C4040F00220094004041F051F050436E3
:102C700070C8FC88102604081F090720086090907F
:102C8000608060303808180C030D12120C113148A6
:102C90000807091013140C1351E163E0182A1F28C8
:102CA000316318E043601F3D08702C709759AF1CCA
:102CB0008080F00441196ED14A2048591E01122922
:102CC000A639212B700C0E630E0136F8040404F8AB
:102CD0001A03082A03715308FC1D04040704E011B9
:102CE0003608048444381B0605213910344444B89E
:102CF0005A02303C806018313601010507059E7C80
:102D000044444484202DF0484444926960460C04B5
:102D100084641C4A06811AB830295069201A381078
:102D2000299019813A0222DA40C0115A20072996C7
:102D300019EF3C404020121D010102022E390129E9
:102D40000E290119261D20404080802B02020E19F9
:102D50001055101090E03A1610180FC040A0A0A017
:102D600060C00F1817141205068134E030C01F1818
:102D7000070202030E732DF0101010302E1F1111D8
:102D8000110E3019411A10701B0708083A081F1459
:102D90001020C02A1F084B08073029AA293029080B
:102DA0007910398E493F1940393F13100E52F03ACD
:102DB000F01F4C01011F0D61390D89114C10100FCE
:102DC0000D4B8060502C020408A0692E49682AF03F
:102DD0001019051A1F621A07061AF09C3960215D46
:102DE0000106081FBF5AC0BF59B039E099A0692039
:102DF000AC286740201914212BE090BF212E081128
:102E000011130E962A102289B0399019052A0F90B5
:102E100019B23370801B80707F1C0E100E62191B5C
:102E200039031008010618071806013C106080D10C
:102E30002F1804030304180F59E15950194633D0D1
:102E4000304C181611671163F808437F403A0C6143
:102E5000411961516308F843407F06136018061852
:102E6000602A400141D40206042C804040521E0CCE
:102E700012120A0F511AF81029114B1F08D0590FBE
:102E800039E0298939101972391019B379203D12A6
:102E900012120B694BF048B149D0392022C04F279C
:102EA000484848443F602930291E492272D0490EC3
:102EB00079111B40402E193021193E191E4C020574
:102EC00008F059EF49302CC0404003290D4903DA7E
:102ED000C0602980291129B029D029202910AA7F72
:102EE000E0196239D02A7F52BB80408F5950113D82
:102EF0000912120C984BE040211932292F5904195C
:102F00000E2A083369104E010E100E010C39031001
:102F10000807180601061807294D29623C10080702
:102F2000D179304C661C03F729CF214D18141211AA
:102F3000F04AE0074B023D771172F029AD31631082
:102F4000E044403D021AC0AF29D0813680E09808A5
:102F5000183A3C5EB12C20182018711964490356A8
:102F60002020FC202029CE89103D02021F0261B5DD
:102F7000040202041010304830804020100804027F
:102F80000D120C120C36E0921414223E081111138B
:102F90000E984AA0C019E3399019DF19E310090708
:102FA0000810101F1212121BFE02011AFE1D390119
:102FB00019701724282828A4602F10181412111033
:102FC0003B3A0C77A1D30806CB0C0221DB08062183
:102FD000C3C0C0197CDB40400FA9126D2010302007
:102FE000B131100910F010C060E060C05A1F02112A
:102FF00045885050881B0912EE29224AA03D39DE2F
:1030000019E01B8080041110090F1010100F12120C
:103010000B1F4048505050C82739D01114106086FB
:103020003B866061194C5172A049101E806020F0EF
:103030002052370304081F080435E01010301D111A
:103040001F111037100810E0202020E0101F04038B
:1030500002020203202D30408040205605051F0546
:103060000572F0523C1DD82424447F1146091112E8
:10307000120D1A3002A12011804020A0A0A0408093
:103080000708131414140807B53A2A3E203D40A03F
:1030900050A0AF19E129E31977B402020E190FB15C
:1030A0001008C020D0D0D020C01F010205040502A6
:1030B000313930A9222B040AD6795F1C4040F00434
:1030C000111D040404050431C534322A26D4222AF1
:1030D00036AB04064E39EE29041D1F040402BE114E
:1030E00057183C3CFC04FC1A1F0229E301174A282C
:1030F000D711D3023EB51C22221C7E10A050A04046
:10310000FE111320E0438060AF19060D0A1E08105F
:103110001501121A16242060A013C0203D01110DC4
:1031200002213152D03C0E13100E2CC428C0572E51
:103130000E0504050E82BBC82410CD08C424C81097
:10314000AC2CC80430BCCC20CC40BCDC34DC10112E
:10315000100EC0C0404040100C0B081F1212121E6F
:10316000E010080808181E0304085828492DF0121A
:103170001614272D1F11111108CDF014161210ACC2
:1031800012121410AC1610162011740206F4521FFD
:103190009CF406020E211C04F202678911AC06F0B1
:1031A000062F17E020202040801A01501410080735
:1031B0002808F024C2060402F01D150106081F1B92
:1031C000C020A01320C02D07081010201BC020A075
:1031D000C9109C121224101A2430AA222019B09966
:1031E0003011196D1C804020972C020101991008A4
:1031F000C02010109060D04C170C128119D12304FC
:10320000F01A0F301B100FF01A04D0B910BB0202D5
:1032100020111A06D3791088081060840682601085
:10322000E01CF04040DF190E2D04040403103D089B
:10323000C848301E351111120C2C885850202E0C05
:1032400012120A0F38CC905848109C484890101A17
:103250001030AA8820BC984058309C9C545C101CAC
:1032600080808004390F2D0F12120BF03420204083
:103270003607085828044B804880191E291F114B17
:103280008050808910498079104A587069101174F3
:103290000818D049F19CD018080E19B12BC808970E
:1032A0007911AC18C0182F1E88685078E0511B0F98
:1032B00010011A0F3F59E0291E29044B8040A169D3
:1032C0002029A0BA4010CB48482019301941791064
:1032D0004A40B159101D808080A0044162021780CD
:1032E000404040C0801008100F1C1212110F2EC059
:1032F000081810C0E02C10100880CDC0101808105D
:103300002B0808F179101A18D20911304501661CF2
:10331000031AF060296F3B7F088F79305920200F06
:1033200004244484649C40300FC808082818180EF0
:1033300010080601824C2018060106182039254085
:103340004042CC1CFC0402043304FC100F40201F3C
:1033500020404F4442407F42444340180B8060F875
:103360000704E4242424FF0433E40412FF280B8020
:10337000814529112F41418181791BFE2201490597
:1033800029EE1C601F0201577F020242827F1D3E10
:10339000222A322035322A223E1809886809092952
:1033A000C9090F04350929C8081808F808080C0AC3
:1033B00009080152F86BFF410152FF1FC040404015
:1033C0007F480119C219602F403704041464032C8C
:1033D0000710E07F180D0222DA0608C8B88FE888C7
:1033E0008888212EFF081008074E2AFF05111510A6
:1033F00060028C3F84E41C05C6BCC01D04047E0131
:10340000253F824126182946C0212B7F490149AE1C
:10341000112AFF0C6AFF072961300B1292B2D29277
:103420009292D2B29E180C40300F0484641F0404A0
:1034300004FF04511AFE1D290142FE2F4042445848
:10344000407FB31640504846402C404042013AC2AB
:103450000613404015201008062B40806D2D0204F5
:103460000830A0300B0CC0021EE2020202E21E1065
:103470001004047C0380804020130C1320408080C3
:10348000180C100C042424242526A46424F8120CFF
:1034900019283E020242827F083B020280F1C233B9
:1034A0002A1001100BFF1010F0101116D010101977
:1034B0005B300D18064120103F4442414040781EC9
:1034C000F8484848C80416FF0809CA081010806068
:1034D0001F828A5623528E4027182641F017242433
:1034E000A4FEA3222322CC42FF15080601FF1A01E5
:1034F000FB2C0404FF80395E1F9008888888FF0435
:1035000012081E0444827F01C11008432C10284673
:1035100081802B40405F1B784F065548484040480B
:10352000090312122222528A06A13B60805A190412
:1035300023C0301F40404043407F062A7FA00A1F1F
:103540004040151060028C1E08080809FA05220880
:10355000180B04047E0140404141417F044A413040
:10356000013C066DF0F87CF8F01F1E3F7F7F0E0CCB
:10357000CB515A01044100085A080C0E7F7F3F1EB0
:103580001B80C001BA4012B008E0FCFFFFF8E080E9
:103590002A4025AAC01201481B0307018B06047CA0
:1035A0001808F8FEFFFFFF3F3F059AFC842A042716
:1035B0000259031808E0F0F8FCE0E0F8F8190124DB
:1035C0007F0F012B010F832985065EF0FCFCF0E0E4
:1035D0005C30393F011B1F0FE5361F3E7C7C3E6C83
:1035E000030F1F1804453830201D10FC7C0C0134DB
:1035F0008CF878300880C0404040C0C02CC0C080EB
:103600000B52802B08781329161B701805291529D1
:103610001E2A401639223933115925012E332E7FA7
:103620001E070F397040E71B7F605624603F1F2A3A
:103630007F171907627E380901073C6060380E0366
:10364000141A5F2A1B3E44011B47073B380B3E7090
:10365000700E01010F38603E1E01252D010203048A
:0C366000043009060708090204060800EF
:04000005080000ED02
:00000001FF
