:020000040800F2
:1000000040040020A10C0008B10C0008B30C00084B
:10001000B50C0008B70C0008B90C0008000000007F
:10002000000000000000000000000000BB0C000801
:10003000BD0C000800000000BF0C0008B70B000852
:10004000F10C0008F50C0008F90C0008FD0C000884
:10005000010D0008050D0008090D00080D0D000830
:10006000110D0008150D0008190D00081D0D0008E0
:10007000210D0008250D0008290D00082D0D000890
:10008000310D0008350D0008390D00083D0D000840
:10009000410D0008450D0008490D00084D0D0008F0
:1000A000510D0008550D0008590D00085D0D0008A0
:1000B000610D0008650D0008690D00086D0D000850
:1000C000710D0008750D0008790D00087D0D000800
:1000D000810D000817030008890D00088D0D000828
:1000E0001F080008950D0008990D0008F8B5A24DED
:1000F000A24C2978204600F0BFF98021204600F06C
:10010000C3F90028F9D06978204600F0B5F98021BC
:10011000204600F0B9F90028F9D0AE1C0427317848
:10012000204600F0A9F98021204600F0ADF9002812
:10013000F9D0761C7F1EF2D1A979204600F09CF9F7
:100140008021204600F0A0F90028F9D0F1BD10B5BB
:10015000894CAA20207082B0092060700421A01C64
:1001600000F0D8F9DD20A0710BE010B5844C002020
:10017000208082B00421A01C00F0CCF90020E08097
:100180002072012144F2050000F005FA00F032F877
:100190004FF4C06000F012FA25208DF80000002016
:1001A0008DF801008DF8020001208DF8030000A8F1
:1001B00000F009FA00F03EF813BD80B5012144F2C9
:1001C000050000F0E8F900F015F84FF4C06000F009
:1001D000F5F925208DF8000000208DF801008DF83C
:1001E000020001208DF8030000A800F0ECF900F0F7
:1001F00021F801BD10B582B04FF40070ADF80000D9
:1002000018208DF8030003208DF8020000A95D4C32
:10021000204600F011FA4FF48060ADF8000000A90C
:1002200004208DF8030003208DF80200204600F022
:1002300003FA13BD10B584B04FF41650009000209F
:10024000ADF80C000C20ADF80A0000200190ADF8CC
:10025000080000A9494C204600F09EF840212046A5
:1002600000F019F90121204600F0E4F8012240F2E3
:100270002551204600F0E8F804B010BD80B5424991
:1002800003780A78FF2B02D1D30707D401E0D30704
:1002900004D5042AACBF0022521C0A7001224A7005
:1002A0003A4910F8013F0A78FF2B02D1D30707D44F
:1002B00001E0D30704D5042AACBF0022521C0A7007
:1002C00001224A70324910F8013F0A78FF2B02D10F
:1002D000D30707D401E0D30704D5042AACBF00221A
:1002E000521C0A7001224A702A4940780A78FF2875
:1002F00002D1D00707D401E0D00704D5042AACBF4F
:100300000020501C087001204870FFF72EFF0020CD
:100310001B49087201BD38B5184C40F225552946D5
:10032000204600F0B9F800B3204600F0A9F81449BF
:100330000A7AD2B9C0B2AA2808BF08700DD0F9282D
:1003400008BF487009D0DD2808BF887105D0CA7978
:1003500052189070C879401CC871C879042804DB11
:100360008879DD2804BFFF20087229462046BDE8B1
:10037000344000F0B0B800003000002000380140E8
:100380002400002000080140140000201800002074
:100390001C0000202000002030B5044685B00D462A
:1003A000208A4CF6FF710840E988084320824EF607
:1003B000F311A0890840A98808432989084369895D
:1003C0000843A0814FF6FF41A08A0840A98908434D
:1003D000A08200A800F0A2F8154884420CBF039840
:1003E0000298296819225043A28912044CBF49007F
:1003F0008900B0FBF1F16420B1FBF0F000010209CB
:10040000642303FB1211A289120406D5C9003231FC
:10041000B1FBF3F101F0070105E009013231B1FB55
:10042000F3F101F00F010843208105B030BD000059
:10043000003801400029818912BF41F400514DF676
:10044000FF721140818170470B065B0F4FF0010C6A
:1004500001F01F010CFA01F1012B08BF0C3003D091
:10046000022B0CBF10301430002A026814BF114355
:1004700022EA010101607047C905C90D81807047FA
:100480008088C005C00D704700880022084218BF50
:1004900001221046704723E030B40A4613060021BB
:1004A0005B0F012402F01F0504FA05F5012B08BFBC
:1004B000838903D0022B0CBF038A838A120A008827
:1004C00004FA02F22B401040002B1CBF002801212F
:1004D00030BC084670470122090A02FA01F189B2CC
:1004E000C9430180704710B450F8041B81B1026801
:1004F0001218001D50F8043BDC0744BFA9F10104A9
:10050000E31852F8044B43F8044B091FF9D1EBE709
:1005100010BC7047002200F009B9000010B4224955
:100520000A6802F00C02082A0FD10A680B68C2F3AD
:100530008342921CDB0358BF1C4B04D50B689B0302
:100540004CBF1A4B1A4B5A4300E0194A02600B6821
:10055000184A0468C3F303139B5C24FA03F3436053
:100560000B684468C3F302239B5C24FA03F38360A3
:100570000B684468C3F3C2239B5C24FA03F3C36093
:100580000968C368C1F381318918097CB3FBF1F1B3
:10059000016110BC7047084A0029116814BF084364
:1005A00021EA0000106070470410024000093D007D
:1005B00000127A0000000020181002401949084378
:1005C00019490860704770B40378C4781A4601214D
:1005D000ECB1154B1B68447803F4E063C3F5E063AA
:1005E0001B0AC3F10405AC4085780F2626FA03F3F5
:1005F0002B4023430D4C1B011355007800F01F02C4
:1006000091400B4A400942F8201070BC704703F03B
:100610001F0001FA00F00749520941F8220070BC9E
:10062000704700000000FA050CED00E000E400E077
:1006300000E100E080E100E02DE9F041CC7800220B
:1006400004F00F03E40644BF8C7823430C88E5B222
:1006500025B3D0F800C001250F2605FA02F7BE46E3
:100660000EEA0408F04514D14FEA820E06FA0EF89D
:100670002CEA080C03FA0EFE4EEA0C0C91F803E08B
:10068000BEF1280F08BF476103D0BEF1480F08BF75
:100690000761521C082AE0D3C0F800C0FF2C28DDF7
:1006A000D0F804C0002201250F2602F1080705FA40
:1006B00007F7BE460EEA0408F04515D14FEA820E50
:1006C00006FA0EF82CEA080C03FA0EFE4EEA0C0CA1
:1006D00091F803E0BEF1280F08BF476191F803E0ED
:1006E000BEF1480F08BF0761521C082ADDD3C0F8CD
:1006F00004C0BDE8F08180680022084218BF0122D2
:100700001046704730B401F0030221F00301064B9C
:100710009200CC580F259540AC43CC509040CC581B
:100720002043C85030BC704708000140401810F00A
:10073000030308D0C91A1FD3DB0748BF00F8012DF7
:1007400028BF20F8022D130030B414461546103986
:1007500028BF20E93C00FAD8490728BF20E90C004F
:1007600048BF40F8042D890028BF20F8022D48BF5B
:1007700000F8012D30BC7047C91818BF00F8012DD2
:10078000CB0728BF00F8012D7047000010B584B0DA
:1007900001210920FFF7FFFE04208DF807004FF428
:1007A000F04403208DF80600ADF8044001A94D483F
:1007B000FFF742FF0B210120FFF7A4FF0C210120CE
:1007C000FFF7A0FF0D210120FFF79CFF0E21012064
:1007D000FFF798FF00208DF80C0002940C208DF894
:1007E0000D0001208DF80E0002A800F07FF84FF4F4
:1007F000E060FFF7E3FE4FF4E060FFF7DFFE282044
:100800008DF8000000208DF801008DF80200012015
:100810008DF8030000A8FFF7D6FE04B010BD10B598
:10082000314C4FF4006000F095F888B14FF400614E
:100830002C48FFF760FF38B920780428ACBF0020AF
:10084000401C2070012060704FF4006000F08AF8B6
:100850004FF4805000F07EF888B14FF48051214869
:10086000FFF749FF38B920790428ACBF0020401CAD
:100870002071012060714FF4805000F073F84FF444
:10088000005000F067F888B14FF400511548FFF7A9
:1008900032FF38B9207A0428ACBF0020401C2072F7
:1008A000012060724FF4005000F05CF84FF480407B
:1008B00000F050F8A0B14FF480410A48FFF71BFF49
:1008C00040B920780428AEBF0020207B401C207354
:1008D000012060734FF48040BDE8104000F042B842
:1008E00010BD0000000C01401400002030B401686D
:1008F0008279CB431D4932B30A4614682340136002
:1009000053680468A34353600379CC1823680568CF
:100910002B43236093680468A3439360D3680468FF
:10092000A343D36043790568102B08D1916829430C
:100930009160D16800680843D06030BC7047CC1823
:100940002068284303E000790C18206818402060D4
:1009500030BC7047064A12680021024218BF0121CC
:100960000846704700BF0249086070470004014014
:10097000140401402DE9F84F00F09CF800F010F944
:1009800000F02AF9FFF702FFFFF717FCFFF7DFFB84
:10099000FFF7EBFBDFF8FC804FF40041404641617C
:1009A000C046DFF8F4904FF4006148464161C0460C
:1009B0004FF4805148464161C0464FF48061404643
:1009C0004161C046DFF8D4A0354F364C364D374E26
:1009D000DFF8DCB00FE04161C046002070710020FC
:1009E0007870FFF783FB9AF80800FF2804BF0AF12C
:1009F0000200FFF743FC9BF80100012813D19BF88C
:100A00000000C0074FF40041404603D50161C046D5
:100A1000FF2002E04161C0460020B07000208BF84A
:100A20000100FFF763FB6878012811D12878C0071F
:100A30004FF40061484603D50161C046FF2002E043
:100A40004161C0460020F07000206870FFF74EFB47
:100A50006078012811D12078C0074FF480514846B2
:100A600003D50161C046FF2002E04161C04600207D
:100A7000307100206070FFF739FB78780128B2D11F
:100A80003878C0074FF480614046A4D50161C04664
:100A9000FF20A3E7000C01400008014024000020D3
:100AA000200000201C000020180000203000002042
:100AB000140000203548364A82B0016841F0010137
:100AC0000160416811404160324A01681140016093
:100AD000016821F480210160416821F4FE01416038
:100AE0004FF41F018160002101910091016841F4E0
:100AF00080310160016801F4003100910199491CC5
:100B00000191009919B90199B1F5A06FF2D101686D
:100B1000490C01F0010100910099012930D11E49D1
:100B20000A6842F010020A600A68920892000A609D
:100B30000A6842F002020A6041684160416841600F
:100B4000416841F480614160416821F47C11416059
:100B5000416841F4E8114160016841F08071016031
:100B600001688901FCD541688908890041604168B4
:100B700041F002014160416801F00C010829FAD1FD
:100B80004FF000600549086002B070470010024055
:100B90000000FFF8FFFFF6FE0020024008ED00E035
:100BA00009480A490A4A4160F02111700021816018
:100BB00007210160704700BF0648016811B1016854
:100BC000491E01607047000010E000E03F1901007D
:100BD00023ED00E03800002080B501210C20FFF754
:100BE000DAFC4FF4C050ADF8000000A910208DF8D9
:100BF000030003208DF802000848FFF71DFD4FF4A5
:100C00000440ADF8000000A910208DF80300032077
:100C10008DF802000248FFF70FFD01BD000C0140F6
:100C20000008014010B5074979441831064C7C444E
:100C3000163404E00A68081D511888470146A1428D
:100C4000F8D110BD08000000180000009BF8FFFF5D
:100C50003C000000480100000000002000000000EF
:100C60000120C046002801D0FFF7DCFF0020C0466D
:100C7000C046FFF77FFE00F000F800F001B800006A
:100C80000746384600F002F8FBE7000080B5C04692
:100C9000C046024A11001820ABBEFBE72600020046
:100CA0000148804701480047B50A0008C10C000808
:100CB0007047FEE7FEE7FEE7FEE7704770477047C4
:100CC000C046C046C046C046FFF7CAFFFFF7F0BFA8
:100CD000FFF7EFBFFFF7EEBFFFF7EDBFFFF7ECBF8A
:100CE000FFF7EBBFFFF7EABFFFF7E9BFFFF763BF0F
:100CF000FFF7FEBFFFF7FEBFFFF7FEBFFFF7FEBF28
:100D0000FFF7FEBFFFF7FEBFFFF7FEBFFFF7FEBF17
:100D1000FFF7FEBFFFF7FEBFFFF7FEBFFFF7FEBF07
:100D2000FFF7FEBFFFF7FEBFFFF7FEBFFFF7FEBFF7
:100D3000FFF7FEBFFFF7FEBFFFF7FEBFFFF7FEBFE7
:100D4000FFF7FEBFFFF7FEBFFFF7FEBFFFF7FEBFD7
:100D5000FFF7FEBFFFF7FEBFFFF7FEBFFFF7FEBFC7
:100D6000FFF7FEBFFFF7FEBFFFF7FEBFFFF7FEBFB7
:100D7000FFF7FEBFFFF7FEBFFFF7FEBFFFF7FEBFA7
:100D8000FFF7FEBFFFF7C7BAFFF7FEBFFFF7FEBFD3
:100D9000FFF745BDFFF7FEBFFFF7FEBF00000000F5
:100DA00001020304010203040607080902040608FD
:100DB0000000000000000000000000000000000033
:100DC0000000000000000000000000000000000023
:080DD00000000000000000001B
:0400000508000CC122
:00000001FF
