:020000040800F2
:1000000020040020990B0008A90B0008AB0B000886
:10001000AD0B0008AF0B0008B10B0008000000009A
:10002000000000000000000000000000B30B00080A
:10003000B50B000800000000B70B0008FD09000820
:10004000E90B0008ED0B0008F10B0008F50B0008A8
:10005000F90B0008FD0B0008010C0008050C000856
:10006000090C00080D0C0008110C0008150C000804
:10007000190C00081D0C0008210C0008250C0008B4
:10008000290C00082D0C0008310C0008350C000864
:10009000390C00083D0C0008410C00086D080008F0
:1000A000490C00084D0C0008510C0008550C0008C4
:1000B000590C00085D0C0008610C0008650C000874
:1000C000690C00086D0C0008710C0008750C000824
:1000D000790C000825070008810C0008850C000831
:1000E000890C00088D0C0008910C0008F0B585B053
:1000F00004000D0000200021002200230026AF890B
:10010000002F2600208A4CF6FF710840E98808433A
:100110002082A0894EF6F3110840A9882A8911434C
:100120006A8911430843A081A08A4FF6FF41084025
:10013000A9890843A08200A800F0C2F81B488642A3
:1001400001D1039900E00299A089000407D5192084
:1001500000FB01F029684900B0FBF1F206E019202C
:1001600000FB01F029688900B0FBF1F26420B2FBCA
:10017000F0F000010109642303FB1123A1890904A4
:1001800008D5D90032316422B1FBF2F111F0070138
:10019000084307E0190132316422B1FBF2F111F09A
:1001A0000F010843208105B0F0BD00000038014078
:1001B000C9B2002904D0818951F40051818104E041
:1001C00081894DF6FF72114081817047F0B40023A0
:1001D00000240025002689B240F66A17B9420600BD
:1001E0000800C0B24309DBB289B211F01F0401203C
:1001F00010FA04F5012B01D10C3604E0022B01D1D9
:10020000103600E01436D2B2002A03D030682843FA
:10021000306002E03068A8433060F0BC7047C90528
:10022000C90D818070478088C005C00D704789B2B4
:100230008A0589B2C9430180704770B40023002445
:100240000025002289B240F66A16B1420A00D2B2F5
:100250005509EDB289B211F01F04012212FA04F41B
:10026000012D02D18289144006E0022D02D1028ABA
:10027000144001E0828A144089B20B0A9BB201212A
:1002800011FA03F300880340002C03D0002B01D0A7
:10029000012200E000221000C0B270BC704710B410
:1002A0000022002389B240F66A14A14289B20A0AE8
:1002B000012111FA02F39BB2D943018010BC7047AF
:1002C00030B40022002100230024354D2D6815F0A4
:1002D0000C052A00002A04D0042A05D0082A06D0DA
:1002E00021E03049016020E02E4901601DE02C49E9
:1002F000096811F470112A4A126812F48033890CCB
:10030000891C002B03D1284A514301600AE0244A8A
:100310001268920303D5244A5143016002E0214A46
:100320005143016001E01F4901601D49096811F056
:10033000F00212091D49545C0168E140416018490E
:10034000096811F4E062120A1849545C4168E140FE
:1003500081601349096811F46052D20A1349545C50
:100360004168E140C1600E49096811F44042920BB6
:100370000F49545CC168B1FBF4F1016130BC7047B6
:10038000C9B2002905D00B4909680843094908602A
:1003900005E00849096831EA00000649086070472D
:1003A0000410024000127A0000093D000000002005
:1003B000100000201810024080B54F48006850F02F
:1003C00001004D4908604D4800684D4908404B49BF
:1003D0000860494800684B4908404749086046485A
:1003E000006830F48020444908604448006830F4D4
:1003F000FE00424908605FF41F004349086000F0B6
:1004000005F85FF000604149086001BD80B500F06B
:1004100001F801BD82B00020019000200090364814
:10042000006850F48030344908603348006810F4A4
:10043000003000900198401C01900098002803D1E2
:100440000198B0F5A06FF0D12B480068800302D569
:100450000120009001E0002000900098012847D181
:100460002B48006850F010002949086028480068AF
:1004700080088000264908602548006850F0020086
:10048000234908601D4800681C4908601B48006833
:100490001A4908601948006850F4806017490860DC
:1004A0001648006830F47C1014490860134800684E
:1004B00050F4E810114908600F48006850F080704F
:1004C0000D4908600C4800688001FBD50B480068A6
:1004D00080088000094908600848006850F0020060
:1004E000064908600548006810F00C000828F9D19A
:1004F00002B07047000000000010024004100240EB
:100500000000FFF8FFFFF6FE0810024008ED00E0D3
:1005100000200240F0B40022002600240025002321
:10052000002791F803C01CF00F0C624691F803C03D
:100530005FEACC6C01D58B781A430B781B0621D06F
:100540000368002406E0CD78482D02D10125A5409E
:100550000561641C082C14D20125A5400E882E408C
:10056000AE42F6D1A5000F2616FA05F7BB4312FAE4
:1005700005F52B43CD78282DE5D10125A540456112
:10058000E7E703600B88FF2B26DD4368002420E0AB
:10059000012514F10806B5400E882E40AE4217D151
:1005A000A5000F2616FA05F7BB4312FA05F52B43F3
:1005B000CD78282D04D1012514F10806B5404561F8
:1005C000CD78482D04D1012514F10806B540056108
:1005D000641C082CDCD34360F0BC704700228068A8
:1005E00089B2084201D0012200E000221000C0B20E
:1005F000704789B20161704789B24161704710B498
:1006000000220F2311F00304E4B2A400A3401A0057
:100610000F4BC9B28C1053F8243033EA02020C4B52
:10062000C9B28C1043F82420094AC9B28B1052F881
:100630002320C0B211F00303DBB29B0098401043AB
:10064000034AC9B2891042F8210010BC704700006B
:100650000800014080B5012144F20500FFF790FE3B
:1006600000F005F800F049F800F01FF801BD80B572
:100670004FF40070ADF8000018208DF8030003203F
:100680008DF8020000A93748FFF744FF4FF480605F
:10069000ADF8000004208DF8030003208DF802005F
:1006A00000A93048FFF736FF01BD00B585B05FF403
:1006B000E13000900020ADF80C000C20ADF80A00ED
:1006C0000020ADF804000020ADF808000020ADF8CF
:1006D000060000A92448FFF709FD40212248FFF742
:1006E000A6FD01212048FFF763FD012240F22551BC
:1006F0001D48FFF76BFD05B000BD80B54FF4C0602D
:1007000000F036F825208DF8000000208DF801005B
:1007100000208DF8020001208DF8030000A800F0F1
:100720002CF801BD80B540F225510F48FFF785FD3B
:10073000002810D00C48FFF776FDC0B2002805D184
:100740004FF480610948FFF757FF04E04FF48061E0
:100750000648FFF74EFF40F225510348FFF79FFD83
:1007600001BD00000008014000380140000C0140BC
:100770001A4908431A490860704710B40021002242
:100780000F23C478002C1DD01549096811F4E061CD
:10079000D1F5E061090AD1F10402CB4041789140E2
:1007A00082781A40114309010E4A037899540121B5
:1007B000027812F01F0291400B4A0078401142F873
:1007C000201009E00121027812F01F029140074A2F
:1007D0000078401142F8201010BC70470000FA0564
:1007E0000CED00E000E400E000E100E080E100E06A
:1007F00000B585B001211120FFF7C2FD8020ADF8C2
:10080000040004208DF8070003208DF8060001A9DC
:100810002D48FFF77FFE07210220FFF7F0FE802022
:10082000029000208DF80C000C208DF80D000120A6
:100830008DF80E0002A800F04BF84FF4E060FFF7CF
:1008400097FF4FF4E060FFF793FF17208DF800004B
:1008500000208DF8010000208DF8020001208DF8A5
:10086000030000A8FFF789FF05B000BD80B5802018
:1008700000F072F8002825D0642004E0491E89B2F7
:100880000029FBD1401E80B2002802D04FF4347101
:10089000F5E780210C48FFF7A1FE00280FD10B4897
:1008A0000078042803DB00200849087004E00748AA
:1008B0000078401C054908700120044948708020D8
:1008C00000F055F801BD00000010014014000020A8
:1008D0000021284A11008279002A35D0254A126861
:1008E00003689A43234B1A60234A126803689A43A9
:1008F000214B1A60027951180A6803681A430A608A
:100900001E490968026891431C4A11601C49096824
:10091000026891431A4A1160417910290CD1174994
:10092000096802681143154A116015490968006891
:100930000843134908600EE00E49427951180A68CD
:1009400000681043086006E0027951180A680068E0
:1009500032EA00000860704700210A4A1268024229
:1009600001D0012100E000210800C0B27047054914
:10097000086070470004014004040140080401407D
:100980000C0401401404014040B2002808D50901BC
:100990001C4A40B210F00F00801800F8041C03E05D
:1009A0000901194A40B28154704780B5411EB1F126
:1009B000807F01D301200EE0401E144908600F2102
:1009C0005FF0FF30FFF7E0FF0020114908600720CB
:1009D00010490860002002BD80B50F48FFF7E5FF11
:1009E000012800D1FEE701BD0C480068002804D0B2
:1009F0000A480068401E09490860704780B5FFF743
:100A0000F3FF01BD18ED00E000E400E014E000E0B9
:100A100018E000E010E000E040190100180000209C
:100A200080B5FFF7C9FCFFF7D7FF00F02FF8FFF7FD
:100A3000DFFEFFF70FFE0BE04FF480611048FFF779
:100A4000DBFD00210F48FFF7EAFB00200E4948704C
:100A50000D4840780128FBD10B480078022190FB1B
:100A6000F1F202FB1102012AE6D14FF48061044841
:100A7000FFF7BFFD01210348FFF7D1FBE5E700BF0A
:100A8000000C0140003801401400002080B5012115
:100A90000820FFF775FC4FF48060ADF800001020CF
:100AA0008DF8030003208DF8020000A90148FFF72C
:100AB00031FD01BD000C014010B450F8041B81B1A0
:100AC00002681218001D50F8043BDC0744BFA9F16E
:100AD0000104E31852F8044B43F8044B091FF9D101
:100AE000EBE710BC704750F8041B61B150F8042BC1
:100AF000D30744BFA9F101039A18002342F8043B2D
:100B0000091FFAD1EFE7704710B50749794418314A
:100B1000064C7C44163404E00A68081D51188847C6
:100B20000146A142F8D110BD0800000028000000D5
:100B3000B7FFFFFF080000001400002000000000C5
:100B400079FFFFFF140000004C01000000000020AE
:100B50000000000000F00BF8002801D0FFF7D4FFE0
:100B60000020C046C046FFF75BFF00F002F80120FE
:100B7000704700F001B800000746384600F002F860
:100B8000FBE7000080B5C046C046024A11001820AD
:100B9000ABBEFBE726000200014880470148004742
:100BA000B9030008B90B00087047FEE7FEE7FEE74F
:100BB000FEE7704770477047C046C046C046C04613
:100BC000FFF7C8FFFFF7F0BFFFF7EFBFFFF7EEBF7C
:100BD000FFF7EDBFFFF7ECBFFFF7EBBFFFF7EABF93
:100BE000FFF7E9BFFFF70ABFFFF7FEBFFFF7FEBF42
:100BF000FFF7FEBFFFF7FEBFFFF7FEBFFFF7FEBF29
:100C0000FFF7FEBFFFF7FEBFFFF7FEBFFFF7FEBF18
:100C1000FFF7FEBFFFF7FEBFFFF7FEBFFFF7FEBF08
:100C2000FFF7FEBFFFF7FEBFFFF7FEBFFFF7FEBFF8
:100C3000FFF7FEBFFFF7FEBFFFF7FEBFFFF7FEBFE8
:100C4000FFF7FEBFFFF712BEFFF7FEBFFFF7FEBFC5
:100C5000FFF7FEBFFFF7FEBFFFF7FEBFFFF7FEBFC8
:100C6000FFF7FEBFFFF7FEBFFFF7FEBFFFF7FEBFB8
:100C7000FFF7FEBFFFF7FEBFFFF7FEBFFFF752BD56
:100C8000FFF7FEBFFFF7FEBFFFF7FEBFFFF7FEBF98
:100C9000FFF7FEBF0000000001020304010203048D
:080CA00006070809020406081A
:0400000508000BB92B
:00000001FF
