:020000040800F2
:1000000030040020E10E0008F10E0008F30E000895
:10001000F50E0008F70E0008F90E000800000000B9
:10002000000000000000000000000000FB0E0008BF
:10003000FD0E000800000000FF0E0008BD0D0008C6
:10004000310F0008350F0008390F00083D0F000878
:10005000410F0008450F0008490F00084D0F000828
:10006000510F0008550F0008590F00085D0F0008D8
:10007000610F0008650F0008690F00086D0F000888
:10008000710F0008750F0008790F00087D0F000838
:10009000810F0008850F0008890F00088D0F0008E8
:1000A000910F0008950F0008990F00089D0F000898
:1000B000A10F0008A50F0008A90F0008AD0F000848
:1000C000B10F0008B50F0008B90F0008BD0F0008F8
:1000D000C10F00080D0A0008C90F0008CD0F000865
:1000E00085010008D50F0008D90F000800B585B0BC
:1000F0000121092000F06AF94FF4F040ADF8040046
:1001000004208DF8070003208DF8060001A97A4825
:1001100000F078F90B21012000F0E9F90C21012011
:1001200000F0E5F90D21012000F0E1F90E21012098
:1001300000F0DDF94FF4F040029000208DF80C0043
:100140000C208DF80D0001208DF80E0002A800F0A3
:10015000F9F94FF4E06000F051FA4FF4E06000F07C
:100160004DFA28208DF8000000208DF801000020B5
:100170008DF8020001208DF8030000A800F043FA7A
:1001800005B000BD80B54FF4006000F01FFA0028F4
:1001900027D0642004E0491E89B20029FBD1401E0B
:1001A00080B2002802D04FF43471F5E74FF40061BB
:1001B000514800F08BF900280FD1504800780428EE
:1001C00003DB00204D49087004E04C480078401CD7
:1001D0004A4908700120494948704FF4006000F016
:1001E00000FA4FF4805000F0F1F9002827D0642085
:1001F00004E0491E89B20029FBD1401E80B20028CC
:1002000002D04FF43471F5E74FF480513A4800F0D2
:100210005DF900280FD13A480078042803DB00205C
:100220003749087004E036480078401C34490870AB
:100230000120334948704FF4805000F0D2F94FF458
:10024000005000F0C3F9002827D0642004E0491EC4
:1002500089B20029FBD1401E80B2002802D04FF4A1
:100260003471F5E74FF40051234800F02FF90028CE
:100270000FD124480078042803DB002021490870AE
:1002800004E020480078401C1E49087001201D49E8
:1002900048704FF4005000F0A4F94FF4804000F093
:1002A00095F9002827D0642004E0491E89B200296E
:1002B000FBD1401E80B2002802D04FF43471F5E724
:1002C0004FF480410C4800F001F900280FD10B4891
:1002D0000078042803DB00200B49087004E00A487A
:1002E0000078401C084908700120074948704FF405
:1002F000804000F076F901BD000C01401C00002098
:1003000020000020240000202800002030B400221B
:10031000002100230024354D2D6815F00C052A001E
:10032000002A04D0042A05D0082A06D021E030494A
:10033000016020E02E4901601DE02C49096811F49C
:1003400070112A4A126812F48033890C891C002B20
:1003500003D1284A514301600AE0244A12689203FB
:1003600003D5244A5143016002E0214A5143016010
:1003700001E01F4901601D49096811F0F0021209EE
:100380001D49545C0168E14041601849096811F455
:10039000E062120A1849545C4168E14081601349E7
:1003A000096811F46052D20A1349545C4168E14073
:1003B000C1600E49096811F44042920B0F49545C28
:1003C000C168B1FBF4F1016130BC7047C9B20029CA
:1003D00005D00B49096808430949086005E0084948
:1003E000096831EA000006490860704704100240BD
:1003F00000127A0000093D000000002010000020DB
:1004000018100240F0B4002200260024002500232A
:10041000002791F803C01CF00F0C624691F803C04E
:100420005FEACC6C01D58B781A430B781B0621D080
:100430000368002406E0CD78482D02D10125A540AF
:100440000561641C082C14D20125A5400E882E409D
:10045000AE42F6D1A5000F2616FA05F7BB4312FAF5
:1004600005F52B43CD78282DE5D10125A540456123
:10047000E7E703600B88FF2B26DD4368002420E0BC
:10048000012514F10806B5400E882E40AE4217D162
:10049000A5000F2616FA05F7BB4312FA05F52B4304
:1004A000CD78282D04D1012514F10806B540456109
:1004B000CD78482D04D1012514F10806B540056119
:1004C000641C082CDCD34360F0BC704700228068B9
:1004D00089B2084201D0012200E000221000C0B21F
:1004E000704789B20161704789B24161704710B4A9
:1004F00000220F2311F00304E4B2A400A3401A0069
:100500000F4BC9B28C1053F8243033EA02020C4B63
:10051000C9B28C1043F82420094AC9B28B1052F892
:100520002320C0B211F00303DBB29B0098401043BC
:10053000034AC9B2891042F8210010BC704700007C
:10054000080001400021284A11008279002A35D094
:10055000254A126803689A43234B1A60234A12689B
:1005600003689A43214B1A60027951180A6803689C
:100570001A430A601E490968026891431C4A1160C7
:100580001C490968026891431A4A1160417910298F
:100590000CD11749096802681143154A11601549C1
:1005A000096800680843134908600EE00E49427963
:1005B00051180A6800681043086006E00279511873
:1005C0000A68006832EA00000860704700210A4AA1
:1005D0001268024201D0012100E000210800C0B2EF
:1005E0007047054908607047000401400404014059
:1005F000080401400C040140140401401A49084356
:100600001A490860704710B4002100220F23C478F3
:10061000002C1DD01549096811F4E061D1F5E061A5
:10062000090AD1F10402CB404178914082781A4006
:10063000114309010E4A037899540121027812F0FE
:100640001F0291400B4A0078401142F8201009E047
:100650000121027812F01F029140074A00784011F0
:1006600042F8201010BC70470000FA050CED00E0C5
:1006700000E400E000E100E080E100E0F0B585B0DA
:1006800004000D0000200021002200230026AF8975
:10069000002F2600208A4CF6FF710840E9880843A5
:1006A0002082A0894EF6F3110840A9882A891143B7
:1006B0006A8911430843A081A08A4FF6FF41084090
:1006C000A9890843A08200A8FFF720FE1B488642A4
:1006D00001D1039900E00299A089000407D51920EF
:1006E00000FB01F029684900B0FBF1F206E0192097
:1006F00000FB01F029688900B0FBF1F26420B2FB35
:10070000F0F000010109642303FB1123A18909040E
:1007100008D5D90032316422B1FBF2F111F00701A2
:10072000084307E0190132316422B1FBF2F111F004
:100730000F010843208105B0F0BD000000380140E2
:10074000C9B2002904D0818951F40051818104E0AB
:1007500081894DF6FF72114081817047F0B400230A
:1007600000240025002689B240F66A17B942060027
:100770000800C0B24309DBB289B211F01F040120A6
:1007800010FA04F5012B01D10C3604E0022B01D143
:10079000103600E01436D2B2002A03D03068284365
:1007A000306002E03068A8433060F0BC7047C90593
:1007B000C90D818070478088C005C00D7047002238
:1007C00089B2B1F5007F0088084201D0012200E023
:1007D00000221000C0B2704789B28A0589B2C943AD
:1007E0000180704770B4002300240025002289B2E4
:1007F00040F66A16B1420A00D2B25509EDB289B28A
:1008000011F01F04012212FA04F4012D02D1828991
:10081000144006E0022D02D1028A144001E0828ACF
:10082000144089B20B0A9BB2012111FA03F300882C
:100830000340002C03D0002B01D0012200E0002255
:100840001000C0B270BC704710B40022002389B2FF
:1008500040F66A14A14289B20A0A012111FA02F390
:100860009BB2D943018010BC704710B450F8041BF0
:1008700081B102681218001D50F8043BDC0744BF28
:10088000A9F10104E31852F8044B43F8044B091F83
:10089000F9D1EBE710BC704710B56C48017889B20C
:1008A0006B48FFF784FF80216948FFF788FF002825
:1008B000F9D16648417889B26548FFF778FF802111
:1008C0006348FFF77CFF0028F9D100240EE05F4861
:1008D000E4B22018817889B25D48FFF768FF802173
:1008E0005B48FFF76CFF0028F9D1641CE4B2042CCC
:1008F000EDDB5648817989B25548FFF758FF8021D2
:100900005348FFF75CFF0028F9D110BD80B5AA203D
:100910004E49087009204D494870002005E000212B
:100920004A4AC0B282189170401CC0B20428F6DB5B
:10093000DD204649887100F001F801BD80B5012134
:1009400044F20500FFF742FD00F005F800F049F819
:1009500000F01FF801BD80B54FF40070ADF8000045
:1009600018208DF8030003208DF8020000A93948F3
:10097000FFF748FD4FF48060ADF8000004208DF8CB
:10098000030003208DF8020000A93248FFF73AFD6A
:1009900001BD00B585B04FF4165000900020ADF8B1
:1009A0000C000C20ADF80A000020ADF80400002077
:1009B000ADF808000020ADF8060000A92448FFF7B4
:1009C0005DFE40212248FFF707FF01212048FFF785
:1009D000B7FE012240F225511D48FFF7BFFE05B0CA
:1009E00000BD80B54FF4C060FFF708FE25208DF8EC
:1009F000000000208DF8010000208DF80200012089
:100A00008DF8030000A8FFF7FEFD01BD80B540F2A0
:100A100025510F48FFF7E6FE002810D00C48FFF7DD
:100A2000CAFEC0B2002805D14FF400410A48FFF7C2
:100A30005BFD04E04FF400410748FFF752FD40F230
:100A400025510348FFF700FF01BD000014000020FE
:100A50000038014000080140000C014080B500F062
:100A6000C5F800F099F900F0BBF9FFF73FFBFFF77D
:100A700065FFFFF74BFF4FF400415548FFF734FD8A
:100A80004FF400615348FFF72FFD4FF48051514858
:100A9000FFF72AFD4FF480614D48FFF725FD25E063
:100AA0004FF480614A48FFF71FFD00204A49487112
:100AB0004A48407801280BD049484078012807D09F
:100AC00048484078012803D04748407801280DD194
:100AD00000204249487000204149487000204149A7
:100AE0004870002040494870FFF7D6FE3B484078E8
:100AF000012819D139480078022190FBF1F202FB5C
:100B00001102012A08D14FF400413148FFF7E9FCF6
:100B1000FF203149887007E04FF400412C48FFF76F
:100B2000E3FC00202C4988702D484078012819D119
:100B30002B480078022190FBF1F202FB1102012AFE
:100B400008D14FF400612348FFF7CBFCFF20224976
:100B5000C87007E04FF400611E48FFF7C5FC002095
:100B60001D49C8701F484078012819D11D480078D8
:100B7000022190FBF1F202FB1102012A08D14FF48D
:100B800080511448FFF7ADFCFF201349087107E0BE
:100B90004FF480510F48FFF7A7FC00200E49087161
:100BA00011484078012883D10F480078022190FB3A
:100BB000F1F202FB1102012A7FF472AF4FF480615F
:100BC0000348FFF78EFCFF200349487170E700BF20
:100BD000000C014000080140140000201C0000200F
:100BE00020000020240000202800002080B54F486D
:100BF000006850F001004D4908604D4800684D49BB
:100C000008404B490860494800684B49084047493B
:100C100008604648006830F4802044490860444831
:100C2000006830F4FE00424908605FF41F00434949
:100C3000086000F005F85FF000604149086001BD00
:100C400080B500F001F801BD82B0002001900020C5
:100C500000903648006850F48030344908603348CA
:100C6000006810F4003000900198401C019000983A
:100C7000002803D10198B0F5A06FF0D12B4800688F
:100C8000800302D50120009001E000200090009830
:100C9000012847D12B48006850F01000294908600E
:100CA00028480068800880002649086025480068B8
:100CB00050F00200234908601D4800681C49086084
:100CC0001B4800681A4908601948006850F48060A1
:100CD000174908601648006830F47C101449086011
:100CE0001348006850F4E810114908600F48006884
:100CF00050F080700D4908600C4800688001FBD5F9
:100D00000B480068800880000949086008480068AE
:100D100050F00200064908600548006810F00C0019
:100D20000828F9D102B0704700000000001002400E
:100D3000041002400000FFF8FFFFF6FE081002401A
:100D400008ED00E00020024040B2002808D509016B
:100D50001C4A40B210F00F00801800F8041C03E099
:100D60000901194A40B28154704780B5411EB1F162
:100D7000807F01D301200EE0401E144908600F213E
:100D80005FF0FF30FFF7E0FF002011490860072007
:100D900010490860002002BD80B50F48FFF7E5FF4D
:100DA000012800D1FEE701BD0C480068002804D0EE
:100DB0000A480068401E09490860704780B5FFF77F
:100DC000F3FF01BD18ED00E000E400E014E000E0F6
:100DD00018E000E010E000E0401901002C000020C5
:100DE00080B501210C20FFF7F1FA4FF40440ADF873
:100DF000000010208DF8030003208DF8020000A9E8
:100E00000848FFF7FFFA4FF4C050ADF8000010207B
:100E10008DF8030003208DF8020000A90248FFF7B7
:100E2000F1FA01BD000C01400008014010B507496E
:100E300079441831064C7C44163404E00A68081DD5
:100E4000511888470146A142F8D110BD2C0000007E
:100E50004C00000050F8041B61B150F8042BD3077C
:100E600044BFA9F101039A18002342F8043B091F6B
:100E7000FAD1EFE770470000DDFFFFFF1C00000024
:100E80001400002000000000E3F9FFFF1400000040
:100E90004C010000000000200000000000F00BF8F2
:100EA000002801D0FFF7C2FF0020C046C046FFF770
:100EB000D5FD00F002F80120704700F001B80000F5
:100EC0000746384600F002F8FBE7000080B5C04650
:100ED000C046024A11001820ABBEFBE72600020004
:100EE0000148804701480047ED0B0008010F00084A
:100EF0007047FEE7FEE7FEE7FEE770477047704782
:100F0000C046C046C046C046FFF7C8FFFFF7F0BF67
:100F1000FFF7EFBFFFF7EEBFFFF7EDBFFFF7ECBF47
:100F2000FFF7EBBFFFF7EABFFFF7E9BFFFF746BFE9
:100F3000FFF7FEBFFFF7FEBFFFF7FEBFFFF7FEBFE5
:100F4000FFF7FEBFFFF7FEBFFFF7FEBFFFF7FEBFD5
:100F5000FFF7FEBFFFF7FEBFFFF7FEBFFFF7FEBFC5
:100F6000FFF7FEBFFFF7FEBFFFF7FEBFFFF7FEBFB5
:100F7000FFF7FEBFFFF7FEBFFFF7FEBFFFF7FEBFA5
:100F8000FFF7FEBFFFF7FEBFFFF7FEBFFFF7FEBF95
:100F9000FFF7FEBFFFF7FEBFFFF7FEBFFFF7FEBF85
:100FA000FFF7FEBFFFF7FEBFFFF7FEBFFFF7FEBF75
:100FB000FFF7FEBFFFF7FEBFFFF7FEBFFFF7FEBF65
:100FC000FFF7FEBFFFF722BDFFF7FEBFFFF7FEBF33
:100FD000FFF7D8B8FFF7FEBFFFF7FEBF0000000025
:100FE00001020304010203040607080902040608BB
:0400000508000F01DF
:00000001FF
